:100000000C9463000C948B000C948B000C9467038D
:100010000C9467030C9467030C948B000C948B0076
:100020000C948B000C948B000C948B000C948B0024
:100030000C948B000C948B000C948B000C948B0014
:100040000C941D030C948B000C94EB020C94C502D1
:100050000C948B000C948B000C948B000C948B00F4
:100060000C948B000C948B0000000008000201002F
:100070000003040700000000000000000000000072
:1000800023002600290000000000240027002A0089
:1000900000000000250028002B00040404040404D0
:1000A0000404020202020202030303030303010227
:1000B00004081020408001020408102001020408F6
:1000C00010202B04570611241FBECFEFD8E0DEBF4F
:1000D000CDBF11E0A0E0B1E0ECE5FDE002C005908D
:1000E0000D92A034B107D9F722E0A0E4B1E001C03D
:1000F0001D92A934B207E1F710E0C2E6D0E004C0D7
:100100002197FE010E949B06C136D107C9F70E94C4
:1001100014050C94A1060C940000AF92BF92CF92EC
:10012000DF92EF92FF920F931F93CF93DF936C01B7
:100130007B018B01040F151FEB015E01AE18BF0898
:10014000C017D10759F06991D601ED91FC9101904A
:10015000F081E02DC6010995892B79F7C501DF9162
:10016000CF911F910F91FF90EF90DF90CF90BF90B4
:10017000AF900895FC01538D448D252F30E0842FDE
:1001800090E0821B930B541710F0CF9608950197BF
:100190000895FC01918D828D981761F0A28DAE0FAC
:1001A000BF2FB11D5D968C91928D9F5F9F73928F33
:1001B00090E008958FEF9FEF0895FC01918D828D5F
:1001C000981731F0828DE80FF11D858D90E008952C
:1001D0008FEF9FEF0895FC01918D228D892F90E084
:1001E000805C9F4F821B91098F73992708958DE83A
:1001F00091E00E94EB0021E0892B09F420E0822F9E
:10020000089580E090E0892B29F00E94F700811189
:100210000C9400000895FC01A48DA80FB92FB11D06
:10022000A35ABF4F2C91848D90E001968F7399272C
:10023000848FA689B7892C93A089B1898C9183700A
:1002400080648C93938D848D981306C00288F38903
:10025000E02D80818F7D80830895EF92FF920F9330
:100260001F93CF93DF93EC0181E0888F9B8D8C8D62
:1002700098131AC0E889F989808185FF15C09FB756
:10028000F894EE89FF896083E889F9898081837019
:10029000806480839FBF81E090E0DF91CF911F91C8
:1002A0000F91FF90EF900895F62E0B8D10E00F5FE9
:1002B0001F4F0F731127E02E8C8D8E110CC00FB6BF
:1002C00007FCFACFE889F989808185FFF5CFCE0157
:1002D0000E940B01F1CFEB8DEC0FFD2FF11DE35AC6
:1002E000FF4FF0829FB7F8940B8FEA89FB898081DA
:1002F0008062CFCFCF93DF93EC01888D8823B9F054
:10030000AA89BB89E889F9898C9185FD03C0808120
:1003100086FD0DC00FB607FCF7CF8C9185FFF2CF9D
:10032000808185FFEDCFCE010E940B01E9CFDF91E7
:10033000CF9108953FB7F8948091850190918601FF
:10034000A0918701B091880126B5A89B05C02F3FD9
:1003500019F00196A11DB11D3FBFBA2FA92F982FEB
:100360008827BC01CD01620F711D811D911D42E0E6
:10037000660F771F881F991F4A95D1F708958F92AE
:100380009F92AF92BF92CF92DF92EF92FF924B017A
:100390005C010E949A016B017C010E949A016C1918
:1003A0007D098E099F09683E734081059105A8F378
:1003B00021E0821A9108A108B10888EEC80E83E0F6
:1003C000D81EE11CF11C81149104A104B10429F789
:1003D000FF90EF90DF90CF90BF90AF909F908F9065
:1003E000089520918B0130918C012817390771F401
:1003F0009091890180918A01981741F0E0918901DB
:10040000F0E0E05CFE4F808190E008958FEF9FEF79
:1004100008950895EF92FF920F931F93CF93DF9368
:10042000DC015C96ED90FC905D97E114F10479F4A9
:1004300081E090E013969C938E93129790E080E079
:10044000DF91CF911F910F91FF90EF9008955196FA
:10045000ED91FC91529750968C915097982F9095D2
:100460000FB75E962C915E97122F127021FD60954A
:10047000F8942081112319F1282B2083E70121977B
:10048000F1F728E0462F50E0308160FF1AC0382B8A
:100490003083E7012197F1F7BA01759567952150EF
:1004A00089F7112381F08081892380830FBF5C96B7
:1004B0008D919C910197F1F781E090E0C1CF2923C4
:1004C000DCCF3923E5CF9081892BEFCF20918B01B1
:1004D00030918C012817390771F480918A0120919D
:1004E000890190E0805C9F4F821B910960E470E07D
:1004F0000E947306089590E080E0089520918B019A
:1005000030918C0128173907B9F4909189018091B5
:100510008A01981789F0E0918901F0E0E05CFE4FD4
:1005200080812091890130E02F5F3F4F2F73332767
:100530002093890190E008958FEF9FEF089590E058
:1005400080E00895FB0101900020E9F73197AF01A9
:10055000461B570BDC01ED91FC910280F381E02DED
:1005600009940F931F93CF93DF93EC010E94A20293
:100570008C0164E271E0CE010E94A202800F911F03
:10058000DF91CF911F910F9108951F920F920FB697
:100590000F9211242F933F934F935F936F937F9309
:1005A0008F939F93AF93BF93EF93FF938DE891E069
:1005B0000E940B01FF91EF91BF91AF919F918F919D
:1005C0007F916F915F914F913F912F910F900FBE4F
:1005D0000F901F9018951F920F920FB60F92112433
:1005E0002F938F939F93EF93FF93E0919D01F09151
:1005F0009E018081E091A301F091A40182FD1BC0C6
:1006000090818091A6018F5F8F732091A70182173F
:1006100041F0E091A601F0E0E357FE4F958F809303
:10062000A601FF91EF919F918F912F910F900FBE97
:100630000F901F9018958081F4CF1F920F920FB6E4
:100640000F9211242F933F938F939F93AF93BF9358
:100650008091810190918201A0918301B0918401E8
:100660003091800123E0230F2D3758F50196A11D0D
:10067000B11D209380018093810190938201A0930A
:100680008301B09384018091850190918601A091AE
:100690008701B09188010196A11DB11D809385014C
:1006A00090938601A0938701B0938801BF91AF9189
:1006B0009F918F913F912F910F900FBE0F901F90A0
:1006C000189526E8230F0296A11DB11DD2CF1F92C7
:1006D0000F920FB60F9211242F933F934F935F9376
:1006E0006F937F938F939F93AF93BF93EF93FF93FA
:1006F000E0918B01F0918C01309749F0A685B78588
:100700008585968D91FF14C09C918923A1F4FF915A
:10071000EF91BF91AF919F918F917F916F915F9179
:100720004F913F912F910F900FBE0F901F901895F2
:100730009C91892361F7A389B4899C9185898095CF
:1007400089238C93868997890197F1F7608D718D44
:10075000A685B785558538E020E0CB010197F1F7F4
:10076000822F90E095958795282F4C91452309F08D
:100770002068315091F7868D81FD209580918A0106
:1007800090E001968F73992730918901381799F07D
:10079000A0918A01B0E0A05CBE4F2C9380938A01A7
:1007A000828D938D0197F1F7A389B4898C919589F6
:1007B000892B8C93ACCF868D8160868FF1CF90E0B2
:1007C000FC01E859FF4F2491FC01E255FF4F3491A1
:1007D000FC01E656FF4FE491EE23C9F0222339F0E5
:1007E000233001F1A8F4213019F1223029F1F0E091
:1007F000EE0FFF1FE057FF4FA591B4918FB7F8940C
:10080000EC91611126C030953E233C938FBF089533
:100810002730A9F02830C9F0243049F780918000B2
:100820008F7D03C0809180008F7780938000DFCF21
:1008300084B58F7784BDDBCF84B58F7DFBCF80916E
:10084000B0008F778093B000D2CF8091B0008F7DC1
:10085000F9CF3E2BDACF0F931F93CF93DF931092F4
:10086000900110928F0188EE93E0A0E0B0E08093B9
:10087000910190939201A0939301B093940124E08D
:1008800031E030938E0120938D0125EC30E03093E0
:100890009A012093990124EC30E030939C0120933D
:1008A0009B0120EC30E030939E0120939D0121ECD0
:1008B00030E03093A00120939F0122EC30E0309390
:1008C000A2012093A10126EC30E03093A4012093F3
:1008D000A3011092A6011092A7011092A8011092F4
:1008E000A90110922D0210922C0280932E02909357
:1008F0002F02A0933002B093310286E191E09093F1
:100900002B0280932A021092410210924002109210
:100910004302109242021092450210924402109239
:10092000470210924602609148026E7F6D7F60938D
:1009300048026695617081E0682789E00E94DF03C4
:1009400047EB50E0FA01649183EA90E0FC012491C6
:10095000222399F030E0220F331FF901EA57FF4FAD
:10096000A591B491F901E057FF4F259134912FB72C
:10097000F8943C91632B6C932FBFFA014491409300
:100980003A02FC018491E82FF0E0EE0FFF1FE057E0
:10099000FF4F8591949190933C0280933B0206EB2C
:1009A00010E0F8012491C2EAD0E0FE01849188238E
:1009B000C9F090E0880F991FFC01EA57FF4FA591FD
:1009C000B491FC01E057FF4F459154913FB7F89423
:1009D0009C91822F809598239C93FA019081892382
:1009E00080833FBF8091480281FD04C061E088E0C0
:1009F0000E94DF0388E080933602F801049100939F
:100A00003702FE01C491EC2FF0E0EE0FFF1FE45817
:100A1000FF4F859194919093390280933802DF9132
:100A2000CF911F910F910895789484B5826084BD11
:100A300084B5816084BD85B5826085BD85B58160E2
:100A400085BD80916E00816080936E001092810060
:100A5000809181008260809381008091810081601B
:100A600080938100809180008160809380008091DC
:100A7000B10084608093B1008091B0008160809368
:100A8000B00080917A00846080937A0080917A002F
:100A9000826080937A0080917A00816080937A00EE
:100AA00080917A00806880937A001092C100109241
:100AB0004502109244021092430210924202109298
:100AC0004102109240028FE796E090934702809394
:100AD000460290913602963108F047C02EE233E08C
:100AE00030934102209340022DE736E030934302D9
:100AF0002093420225ED34E03093450220934402D6
:100B00002091680084E0983048F031E09E3008F48D
:100B100030E081E001C0880F3A95EAF7822B80939C
:100B200068002DE630E0983050F02BE630E09E3043
:100B300030F02CE630E0963110F030E020E03093D9
:100B40003E0220933D02292F30E0983008F0A2C0E9
:100B500081E001C0880F9A95EAF780933F02809167
:100B60004602909147020197F1F7809144029091DB
:100B70004502892B49F1E0918B01F0918C0182E0D3
:100B8000EA32F80709F1309739F0A389B4899C91CA
:100B90008589809589238C93809148028E7F8093EC
:100BA000480210928A01109289018AE292E09093A1
:100BB0008C0180938B01E0913D02F0913E02808197
:100BC00090913F02892B8083E0919D01F0919E01DD
:100BD00082E08083E0919901F0919A011082E09186
:100BE0009B01F0919C018FEC80831092A501E09114
:100BF000A101F091A20186E08083E0919F01F09134
:100C0000A001808180618083E0919F01F091A0012B
:100C1000808188608083E0919F01F091A0018081B4
:100C200080688083E0919F01F091A00180818F7D99
:100C3000808360ED77E080E090E00E94BF0167E292
:100C400071E08AE292E00E94B10267E271E08DE811
:100C500091E00E94B10264E670E080E090E00E94C2
:100C6000BF0164E271E08AE292E00E94A20260E3C6
:100C700075E780E090E00E94BF016CE371E08AE2DA
:100C800092E00E94B1026CE371E08DE891E00E9475
:100C9000B102FFCF9E3040F42850310981E001C0FD
:100CA000880F2A95EAF759CF2E503109F7CF86E100
:100CB00091E090932B0280932A0280918B01909176
:100CC0008C018A52924071F4E0913D02F0913E0213
:100CD000908180913F0280958923808310928C01BE
:100CE00010928B01089597FB072E16F4009407D0FD
:100CF00077FD09D00E94870607FC05D03EF4909549
:100D000081959F4F0895709561957F4F0895AA1B17
:100D1000BB1B51E107C0AA1FBB1FA617B70710F0E6
:100D2000A61BB70B881F991F5A95A9F78095909518
:100D3000BC01CD010895EE0FFF1F0590F491E02D49
:100D4000099410E0C2E6D0E004C0FE010E949B06B8
:0C0D50002196C336D107C9F7F894FFCFF5
:100D5C00000000002D018D00BA007A01EB00C900E3
:100D6C00DD00000000000A028D009F0209026602ED
:100D7C007E02F1010D0A00415444202B202B393105
:100D8C00393878787878787878783B00415448000E
:00000001FF
