:100000000C9481030C9422130C94FB120C9449134E
:100010000C9449130C9449130C94C1130C94A90328
:100020000C94A9030C94A9030C94A9030C94A903A0
:100030000C94A9030C94A9030C94A9030C94A90390
:100040000C94B1120C94A9030C947F120C945912C5
:100050000C94A9030C94A9030C94A9030C94A90370
:100060000C94A9030C94A903596F752068617665F7
:10007000206265656E2062616E6E65642066726FD7
:100080006D20636F6E6E656374696E672E20506CB1
:100090006561736520636F6E746163742074686555
:1000A000204D515454207365727665722061646DE1
:1000B000696E6973747261746F7220666F72206DFD
:1000C0006F72652064657461696C732E0045786396
:1000D0006565646564207265636F6E6E6563742028
:1000E00072617465206C696D69742E20506C656155
:1000F00073652074727920616761696E206C617428
:1001000065722E004E6F7420617574686F72697A23
:10011000656420746F20636F6E6E6563740054684D
:1001200065206461746120696E2074686520757350
:100130006572206E616D65206F72207061737377D8
:100140006F7264206973206D616C666F726D656497
:1001500000546865204D515454207365727669636C
:100160006520697320756E617661696C61626C658A
:100170000054686520436C69656E74206964656E1F
:1001800074696669657220697320636F7272656352
:1001900074205554462D3820627574206E6F74207B
:1001A000616C6C6F77656420627920746865205398
:1001B0006572766572005468652053657276657263
:1001C00020646F6573206E6F7420737570706F722A
:1001D0007420746865206C6576656C206F66207489
:1001E0006865204D5154542070726F746F636F6C4A
:1001F0002072657175657374656400436F6E6E651A
:100200006374696F6E206661696C6564004661693C
:100210006C656420746F20737562736372696265C4
:1002200000434F4E4E454354204F4B002200222C9A
:10023000220041542B43495053544152543D2254BF
:100240004350222C22002200222C220041542B4316
:10025000495053544152543D22544350222C2200C1
:1002600041542B43495052584745543D3100415465
:100270002B4349504D55583D300053485554204F5D
:100280004B0041542B434950534855540041542B83
:10029000434950434C4F5345002030780020627949
:1002A0007465732072656164002B4349505258474E
:1002B00045543A20322C0041542B43495052584760
:1002C00045543D322C00206279746573206176615B
:1002D000696C61626C65002B434950525847455424
:1002E0003A20342C0041542B43495052584745542E
:1002F0003D3400093C2D2D2D2000093C2D2D2D20B5
:100300000041542B43495053454E443D0020307822
:100310000041542B43495053454E443D00556E6BAC
:100320006E6F776E206572726F72004D515454205B
:1003300062676C6E64690035736E20736E72612043
:10034000746B727220646E6E636B004D5154542056
:1003500062676C6E747369206B726C7972003C4FCB
:100360004B21003C5F5F5F6F6C6D646900476E649A
:10037000726C79723E00093C2D2D2D200041542BCA
:1003800043495053544154555300093C2D2D2D20C1
:1003900000092D2D2D3E2000000000002400270024
:1003A0002A0000000008000201000003040700000A
:1003B0000000000000002B435245473A2000415402
:1003C0002B435245473F0041542B43494943520078
:1003D00041542B53415042523D312C310041542B5A
:1003E00053415042523D332C312C22505744222C41
:1003F0000041542B53415042523D332C312C225555
:10040000534552222C0041542B435354543D220057
:10041000092D2D2D3E200041542B435354543D2291
:100420000041542B53415042523D332C312C224138
:10043000504E222C0041542B53415042523D332CFC
:10044000312C22434F4E54595045222C22475052B2
:1004500053220041542B43474154543D31005348EB
:100460005554204F4B0041542B4349505348555449
:100470000041542B43474154543D300041542B53C9
:10048000415042523D302C310053485554204F4B7F
:100490000041542B43495053485554004750525340
:1004A0002061636C6D646900475052532061636C36
:1004B00079720047505253206970746C2065646CE7
:1004C0007972004167206B6E74726C2065646C7980
:1004D000720047534D204F4B0041542B43504D5316
:1004E0003D22534D222C22534D222C22534D2200CB
:1004F00053494D3830304800093C2D2D2D2000093E
:100500002D2D2D3E200053494D434F4D5F53494DF6
:1005100035333230450053494D434F4D5F53494DBC
:1005200035333230410053494D3830302052313369
:100530000053494D383038205231330053494D383B
:1005400030382052313400093C2D2D2D2000092D4A
:100550002D2D3E200041542B435648553D3000413F
:10056000544530004154453000415400415400414D
:10057000540054696D656F75743A204E6F20726532
:1005800073706F6E736520746F2041542E2E2E2071
:100590006C61737420646974636820617474656D40
:1005A00070742E0041540041540041540041747451
:1005B000656D7074696E6720746F206F70656E2052
:1005C000636F6D6D207769746820415473004753E1
:1005D0004D20687473690047534D2061636C7972D4
:1005E000002E00727373693A00696C6B206D736A38
:1005F00020676E64726C797200727373693A00429C
:10060000617A2069737473796E6E612062676C6EB3
:1006100064690047534D20746B727220646E6E796A
:1006200072000000696E7465726E65740072737496
:100630003A005373746D2062736C797200506E6768
:10064000580072300048544C492076726920676C1B
:100650006469004D736A2062736B736E6120676C0E
:1006600064690072300062736B61206B6E7500729A
:100670003100747374003C00476C6E3A3E002B43AB
:1006800053513A200041542B43535100093C2D2D26
:100690002D2000092D2D2D3E200044726F707065B5
:1006A000642061207061636B657400093C2D2D2D01
:1006B00020004F4B00464F4E4100464F4E416E6565
:1006C0007400000000002300260029000000000044
:1006D000250028002B00040404040404040402027E
:1006E00002020202030303030303010204081020B1
:1006F0004080010204081020010204081020CB13DE
:100700004C1E11241FBECFEFD8E0DEBFCDBF25E0C9
:10071000AAE5B2E001C01D92A63AB207E1F712E0E5
:10072000A0E0B1E0E0EDF4E402C005900D92AA353E
:10073000B107D9F713E0C0E8D3E004C02197FE0168
:100740000E94F71FCF37D107C9F70E9482150C947A
:100750005B220C9400002F923F924F925F926F9217
:100760007F928F929F92AF92BF92CF92DF92EF9241
:10077000FF920F931F93CF93DF93EC014B015A012C
:10078000E881F9810484F585E02D9A0141E050E08B
:1007900009950197A9F090E080E0DF91CF911F913A
:1007A0000F91FF90EF90DF90CF90BF90AF909F9010
:1007B0008F907F906F905F904F903F902F90089513
:1007C00084010F5F1F4F140185E0280E311C412C5E
:1007D000512C32014394C12CD12C7601E881F9814E
:1007E0000484F585E02D950141E050E0B801CE018B
:1007F0000995019781F6D801ED918D01AE2FAF7764
:10080000B0E0A30192010E945C1FC60ED71EE81E35
:10081000F91E87E0440C551C661C771C8A95D1F79D
:100820000215130509F4B7CFE7FDD8CFC801881921
:1008300099094C0145E950E0481B590BE881F981C1
:100840000484F585E02DCA01B0E0A0E095018C1587
:100850009D05AE05BF0530F4B801CE010995880DA0
:10086000991D9BCFA601F8CF0895DC01ED91FC9175
:100870000190F081E02D0994EF92FF920F931F9366
:10088000CF93DF938C017B01D0E0C0E0F701EC0F48
:10089000FD1F6491662361F0D801ED91FC910190F8
:1008A000F081E02DC8010995892B11F02196EECF3A
:1008B000CE01DF91CF911F910F91FF90EF9008959E
:1008C000AF92BF92CF92DF92EF92FF920F931F935E
:1008D000CF93DF936C017B018B01040F151FEB019C
:1008E0005E01AE18BF08C017D10759F06991D60153
:1008F000ED91FC910190F081E02DC6010995892BC5
:1009000079F7C501DF91CF911F910F91FF90EF9083
:10091000DF90CF90BF90AF900895FC01538D448D30
:10092000252F30E0842F90E0821B930B541710F09A
:10093000CF96089501970895FC01918D828D9817A7
:1009400061F0A28DAE0FBF2FB11D5D968C91928D7F
:100950009F5F9F73928F90E008958FEF9FEF0895B0
:10096000FC01918D828D981731F0828DE80FF11D79
:10097000858D90E008958FEF9FEF0895FC01918D94
:10098000228D892F90E0805C9F4F821B91098F738D
:100990009927089581EB92E00E94BE0421E0892B03
:1009A00009F420E0822F089580E090E0892B29F05F
:1009B0000E94CA0481110C9400000895FC01A48DCA
:1009C000A80FB92FB11DA35ABF4F2C91848D90E071
:1009D00001968F739927848FA689B7892C93A08954
:1009E000B1898C91837080648C93938D848D9813DE
:1009F00006C00288F389E02D80818F7D8083089571
:100A0000EF92FF920F931F93CF93DF93EC0181E05E
:100A1000888F9B8D8C8D98131AC0E889F989808105
:100A200085FF15C09FB7F894EE89FF896083E88938
:100A3000F98980818370806480839FBF81E090E02A
:100A4000DF91CF911F910F91FF90EF900895F62EB7
:100A50000B8D10E00F5F1F4F0F731127E02E8C8D51
:100A60008E110CC00FB607FCFACFE889F989808196
:100A700085FFF5CFCE010E94DE04F1CFEB8DEC0FA8
:100A8000FD2FF11DE35AFF4FF0829FB7F8940B8FB3
:100A9000EA89FB8980818062CFCFCF93DF93EC011D
:100AA000888D8823B9F0AA89BB89E889F9898C9156
:100AB00085FD03C0808186FD0DC00FB607FCF7CF12
:100AC0008C9185FFF2CF808185FFEDCFCE010E9412
:100AD000DE04E9CFDF91CF91089590E0FC01EE555F
:100AE000FC4F2491FC01E651F94F3491FC01EA528C
:100AF000F94FE491EE23C9F0222339F0233001F1BC
:100B0000A8F4213019F1223029F1F0E0EE0FFF1F97
:100B1000E453F94FA591B4918FB7F894EC9161111A
:100B200026C030953E233C938FBF08952730A9F00F
:100B30002830C9F0243049F7809180008F7D03C0B0
:100B4000809180008F7780938000DFCF84B58F778E
:100B500084BDDBCF84B58F7DFBCF8091B0008F77D4
:100B60008093B000D2CF8091B0008F7DF9CF3E2B23
:100B7000DACFCF93DF9390E0FC01E651F94F249157
:100B80008A52994FFC0184918823D1F090E0880F1C
:100B9000991FFC01E856FC4FA591B491FC01E45368
:100BA000F94FC591D49161110EC09FB7F8948C9103
:100BB000E22FE0958E238C932881E223E8839FBF68
:100BC000DF91CF9108958FB7F894EC91E22BEC93DD
:100BD0008FBFF6CF3FB7F89480919C0290919D0211
:100BE000A0919E02B0919F0226B5A89B05C02F3F01
:100BF00019F00196A11DB11D3FBFBA2FA92F982F43
:100C00008827BC01CD01620F711D811D911D42E03D
:100C1000660F771F881F991F4A95D1F708958F9205
:100C20009F92AF92BF92CF92DF92EF92FF924B01D1
:100C30005C010E94EA056B017C010E94EA056C19C7
:100C40007D098E099F09683E734081059105A8F3CF
:100C500021E0821A9108A108B10888EEC80E83E04D
:100C6000D81EE11CF11C81149104A104B10429F7E0
:100C7000FF90EF90DF90CF90BF90AF909F908F90BC
:100C800008950895BF92CF92DF92EF92FF920F9353
:100C90001F93CF93DF938C017B01B42ED0E0C0E093
:100CA0006C0188EEC81A8EEFD80AA1E0EA1AF108A2
:100CB000CE3FD10570F5F60180819181DC01ED9187
:100CC000FC910084F185E02D0995892BC1F0F60196
:100CD00080819181DC01ED91FC910284F385E02D0E
:100CE00009958D3041F38A3021F4209721F3BB2000
:100CF00081F0F801EC0FFD1F86872196DCCFE1140F
:100D0000F10439F061E070E080E090E00E940F06AD
:100D1000CCCFF801EC0FFD1F16868C2FDF91CF9101
:100D20001F910F91FF90EF90DF90CF90BF900895AB
:100D30000F931F93CF93DF93EC0190E080E08C0141
:100D40000F5F1F4F8897D8F4E881F9810084F185FF
:100D5000E02DCE010995892B51F0E881F9810284BB
:100D6000F385E02DCE01099510E000E0EDCF61E0C4
:100D700070E080E090E00E940F06C801E0CFDF91B4
:100D8000CF911F910F910895885E9E4FDC018D9148
:100D90009C91DC01ED91FC910680F781E02D099496
:100DA000885E9E4FDC018D919C91DC01ED91FC9160
:100DB0000484F585E02D0994885E9E4FDC018D91B9
:100DC0009C91DC01ED91FC910284F385E02D099466
:100DD000885E9E4FDC018D919C91DC01ED91FC9130
:100DE0000190F081E02D0994885E9E4FDC018D9189
:100DF0009C91DC01ED91FC910084F185E02D09943A
:100E00002091A2023091A3022817390771F4909122
:100E1000A0028091A102981741F0E091A002F0E0B9
:100E2000E55AFD4F808190E008958FEF9FEF089580
:100E30000895EF92FF920F931F93CF93DF93DC01FE
:100E40005C96ED90FC905D97E114F10479F481E0FB
:100E500090E013969C938E93129790E080E0DF9140
:100E6000CF911F910F91FF90EF9008955196ED91C2
:100E7000FC91529750968C915097982F90950FB760
:100E80005E962C915E97122F127021FD6095F8945A
:100E90002081112319F1282B2083E7012197F1F7F5
:100EA00028E0462F50E0308160FF1AC0382B308395
:100EB000E7012197F1F7BA0175956795215089F7F8
:100EC000112381F08081892380830FBF5C968D91EF
:100ED0009C910197F1F781E090E0C1CF2923DCCF0D
:100EE0003923E5CF9081892BEFCF2091A202309159
:100EF000A3022817390771F48091A1022091A00262
:100F000090E0805C9F4F821B910960E470E00E943A
:100F1000AD1F089590E080E008952091A2023091E5
:100F2000A30228173907B9F49091A0028091A10279
:100F3000981789F0E091A002F0E0E55AFD4F80811A
:100F40002091A00230E02F5F3F4F2F733327209373
:100F5000A00290E008958FEF9FEF089590E080E069
:100F600008950895FB0101900020E9F73197AF0142
:100F7000461B570BDC01ED91FC910280F381E02DC3
:100F800009948F929F92AF92BF92EF92FF920F932C
:100F90001F93CF93DF93CDB7DEB7A1970FB6F89429
:100FA000DEBF0FBECDBF7C01FA01CB0119A22230FA
:100FB00008F42AE08E010F5D1F4F822E912CB12C78
:100FC000A12CBF01A50194010E94C11FF901CA0112
:100FD0006A300CF5605DD8016E938D01232B242BB4
:100FE000252B79F790E080E0109721F0BD01C70133
:100FF0000E94B207A1960FB6F894DEBF0FBECDBF18
:10100000DF91CF911F910F91FF90EF90BF90AF9024
:101010009F908F900895695CDECF8F929F92AF92E0
:10102000BF92CF92DF92EF92FF920F931F93CF93D5
:10103000DF937C018B016C0182E0C80ED11C47015B
:10104000E5E08E0E911CD0E0C0E0F60141916F0109
:1010500050E070E060E02AE0C8010E94C1075C0136
:101060006EE2C8010E9435048A0D9B1DC80FD91F6E
:10107000C814D90451F7F701458150E070E060E0F1
:101080002AE0C8010E94C1078C0F9D1FDF91CF91FC
:101090001F910F91FF90EF90DF90CF90BF90AF9096
:1010A0009F908F9008956CE671E00C94B2070F93B7
:1010B0001F93CF93DF93EC01462F50E070E060E088
:1010C0002AE00E94C1078C01CE010E945308800FC4
:1010D000911FDF91CF911F910F9108950F931F934F
:1010E000CF93DF938C01D0E0C0E06115710519F05A
:1010F0000E94B207EC01C8010E9453088C0F9D1F8B
:10110000DF91CF911F910F9108950F931F93CF936C
:10111000DF93EC018B0140E060E177E20E94420640
:101120006BEA76E081EB92E00E943C042E96BE01D1
:1011300081EB92E00E946E08B801CE010E94C81EA9
:1011400021E0892B09F020E0822FDF91CF911F91C0
:101150000F910895EF92FF920F931F93CF93DF9318
:101160008C01EB017A0183E694E00E94980663E922
:1011700076E081EB92E00E943C04B80181EB92E0C2
:101180000E943C0462E281EB92E00E943504BE01C1
:1011900081EB92E00E943C0462E281EB92E00E94CB
:1011A000350481EB92E00E945308B80180917B05E1
:1011B00090917C050E943C0462E280917B059091B5
:1011C0007C050E943504BE0180917B0590917C05D1
:1011D0000E943C04C0917B05D0917C0562E2CE0167
:1011E0000E943504CE010E94530840E060E177E29E
:1011F00083E694E00E9442066CE876E081EB92E0A0
:101200000E943C0461E774E081EB92E00E946E086A
:10121000B70181E794E00E94C81E21E0892B09F004
:1012200020E0822FDF91CF911F910F91FF90EF90DF
:1012300008950F931F93CF93DF93EC010E943C041A
:101240008C01CE010E945308800F911FDF91CF9136
:101250001F910F910895EF92FF920F931F93CF93D9
:10126000DF93EC018B017A010E94980661E973E03B
:1012700081EB92E00E943C04B80181EB92E00E9475
:101280001909FE01E85EFE4FB801808191810E943C
:10129000190940E0B701CE010E944206182F6AE802
:1012A00073E081EB92E00E943C04BE01625F7F4FDD
:1012B00081EB92E00E946E08812FDF91CF911F9108
:1012C0000F91FF90EF9008950F931F93CF93DF93AB
:1012D000EC018A01A9010E942B09882341F0B80181
:1012E000CE010E960E94C81E21E0892B09F020E055
:1012F000822FDF91CF911F910F91089586549F4FB8
:10130000FC0180819181FC01EA5EFE4F40815181A8
:1013100024EF31E06DE872E00C946409DF92EF9203
:10132000FF920F931F93CF93DF938B017A01D22EFD
:101330000E960E94DA1EEC01892BE1F0C8010E9492
:10134000D11E8C0F9D1FDD2039F06CE270E00E94F1
:10135000FF21009779F001960E94831EF701918387
:10136000808381E0DF91CF911F910F91FF90EF90EB
:10137000DF90089580E0F6CFCF92DF92EF92FF9258
:101380000F931F93CF93DF93EC017A01690144EF30
:1013900051E00E942B09202FA601B701CE010E9427
:1013A0008E09182F882331F040E064EF71E0CE0100
:1013B0000E944206812FDF91CF911F910F91FF90E4
:1013C000EF90DF90CF9008950F93CF93DF9300D0ED
:1013D000CDB7DEB700E09E012F5F3F4F4EE756E0EE
:1013E00065E876E083E694E00E94BC09882339F042
:1013F00089810F900F90DF91CF910F91089580E038
:10140000F8CF0F931F93CF93DF93EB010990002048
:10141000E9F72197C61BD70BFC01D083C1838C0150
:101420000E5F1F4FAE01C8010E943222C8018C0F0F
:101430009D1FDF91CF911F910F9108958F929F92E1
:10144000AF92BF92CF92DF92EF92FF920F931F93D2
:10145000CF93DF93CDB7DEB7A8970FB6F894DEBF72
:101460000FBECDBF7C01FC016281738148E250E078
:10147000CE0101960E943222A895F701E654FF4F53
:1014800000811181F70184809580C8010E9498062F
:1014900020E23EE44AE752E062E872E0C8010E94BE
:1014A0006409811114C080E0A8960FB6F894DEBFDD
:1014B0000FBECDBFDF91CF911F910F91FF90EF90A5
:1014C000DF90CF90BF90AF909F908F90089568016C
:1014D000FAEECF1AFEEFDF0AF6014081518124EFC8
:1014E00031E06EE672E0C8010E9464098823D9F2F7
:1014F000F6014081518124EF31E060E672E0C801DD
:101500000E946409882379F26CE472E081EB92E036
:101510000E943C04BE016F5F7F4F81EB92E00E940E
:10152000B20768E472E081EB92E00E943C04B12CC7
:10153000A12C2AE0B501A40181EB92E00E94C10731
:1015400066E472E081EB92E00E94190962E372E0C6
:101550007801F8EEEF1AFEEFFF0AF7018081918122
:101560000E943C04BE016F5F7F4FF7018081918133
:101570000E94B2076EE272E0F701808191810E94C1
:101580003C042AE0B501A401F701808191810E9409
:10159000C1076CE272E0F701808191810E94190914
:1015A000F60160817181C8010E948508882309F4D1
:1015B0007ACF61E272E0C8010E94850875CFCF93AF
:1015C000DF932091780330917903232B89F0FC017C
:1015D000C0917403D091750360817181CE010E9426
:1015E0004122009729F08C1B9D0BDF91CF9108952C
:1015F0008FEF9FEFFACFCF93DF93EC01FC01EA5E10
:10160000FE4F4081518124E630E06DE773E00E9497
:101610006409282F8823D9F040E064E670E0CE0109
:101620000E94420666E773E081EB92E00E943C0470
:101630002E96BE0181EB92E00E946E086FE671E08B
:10164000CE010E940A2221E0892B09F020E0822F9E
:10165000DF91CF91089586549F4FFC018081918145
:101660000C94FB0AAF92BF92CF92DF92EF92FF925F
:101670000F931F93CF93DF937B018A01EC01C65434
:10168000DF4F888199810E94FB0A811102C020E00E
:101690007FC00990D881C02D61E173E081EB92E0B9
:1016A0000E943C04602F81EB92E00E945708670182
:1016B0005801BB24C6018E199F098A159B05A0F409
:1016C0006DE073E081EB92E00E943C04D6014D9105
:1016D0006D01042E000C550B660B770B20E181EB9E
:1016E00092E00E94C107E6CF81EB92E00E9453088E
:1016F0006E01B8EECB1ABEEFDB0A61E073E0F601D3
:10170000808191810E943C04602FD6018D919C9133
:101710000E94570840E064EF71E0CE010E9442064B
:101720006AEF72E081EB92E00E943C048E01025F5E
:101730001F4FB80181EB92E00E946E088E858E33B8
:1017400009F0A5CFF60180819181DC01ED91FC913A
:101750000280F381E02DA501B701099540E068EB17
:101760007BE0CE010E94420663EF72E081EB92E0E3
:101770000E943C04B80181EB92E00E946E0861E88F
:1017800071E0C8010E940A2221E0892B09F07FCF75
:10179000822FDF91CF911F910F91FF90EF90DF90FB
:1017A000CF90BF90AF9008950E94DF210F931F93B9
:1017B000CF93DF938C01EB01FC0180819181009735
:1017C000E1F06881798161157105A9F04281538149
:1017D0002C813D814217530770F00E9413228C81A7
:1017E0009D81F801958384831D821C82DF91CF91B6
:1017F0001F910F9108950E94992088819981F80185
:10180000918380838A819B81938382838C819D8154
:1018100095838483198218821B821A82E5CFCF9325
:10182000DF93EC0188819981009711F00E94992043
:10183000198218821D821C821B821A82DF91CF912D
:101840000895FC0180819181009711F00C949920FA
:1018500008950C9499200F931F93CF93DF93EC017D
:1018600088819981009759F02A813B812617370793
:1018700030F081E0DF91CF911F910F9108958B019E
:101880006F5F7F4F0E942221009759F099838883D0
:101890001B830A832C813D81232B59F7FC01108285
:1018A000E8CF80E0E7CFEF92FF920F931F93CF93A3
:1018B000DF936115710541F480E0DF91CF911F91B5
:1018C0000F91FF90EF90089541155105B1F07B0104
:1018D000EC010C811D81040F151FB8010E942B0C17
:1018E000882351F3288139818C819D81B701820F32
:1018F000931F0E9413221D830C8381E0DECFCF93C0
:10190000DF93EC01FB0101900020E9F73197AF0173
:10191000461B570B0E94530C811103C0CE010E943D
:101920000F0CCE01DF91CF910895CF93DF93EC019F
:10193000FB0144815581608171810E94530C8111AA
:1019400003C0CE010E940F0CCE01DF91CF9108950C
:10195000EF92FF920F931F93CF93DF93EC017B01E4
:101960008A01BA010E942B0C81110BC0CE010E948A
:101970000F0CCE01DF91CF911F910F91FF90EF904F
:1019800008951D830C83B701888199810E941322D9
:10199000F0CFFB0101900020E9F73197AF01461B22
:1019A000570B0C94A80CCF93DF93EC01FB01861727
:1019B000970749F0608171816115710541F044819B
:1019C00055810E94A80CCE01DF91CF9108950E940D
:1019D0000F0CF9CFFC011182108213821282158242
:1019E00014820C94D30CFC01118210821382128297
:1019F00015821482FB0101900020E9F73197AF01B5
:101A0000461B570B0C94A80CCF92DF92EF92FF92DB
:101A10000F931F93CF93DF936C017B018A014617CD
:101A2000570720F48F2D7A01062F182F6EE671E0EC
:101A3000C6010E94F30CC0917803D0917903EC1693
:101A4000FD06F8F40C171D0708F4E801E091740393
:101A5000F0917503EC0FFD1F1081108260917403EB
:101A6000709175036E0D7F1DC6016115710599F0AA
:101A70000E94C90C8091740390917503C80FD91FFF
:101A80001883C601DF91CF911F910F91FF90EF90C6
:101A9000DF90CF9008950E940F0CECCF2F923F92D1
:101AA0004F925F926F927F928F929F92AF92BF926E
:101AB000CF92DF92EF92FF920F931F93CF93DF931A
:101AC00000D000D000D0CDB7DEB7FC016330710587
:101AD00008F462C09489907F903309F05DC030E0D3
:101AE00020E06038710538F0611520E4720708F4D1
:101AF0004BC022E030E07E836D837F01490184E0AA
:101B0000880E911C2E0F3F1FD9015796CC90D12CD7
:101B10001F01BCEA2B0E311C10E000E03F01E4E1A4
:101B20006E0E711C2301480C591CD101AD90BD9063
:101B30001D01A114B10459F1F50160817181FB010E
:101B400001900020E9F73197E61BF70BCE16DF0670
:101B5000F1F4A601C2010E941A22892BC1F4D50119
:101B600095968C919597811103C081E095968C9301
:101B7000B4016C0D7D1DF70194899670923079F057
:101B8000B12CA12C90E012C021E030E0B4CF0F5F67
:101B90001F4F0530110549F690E080E052C0F70173
:101BA000E60FF71F8489A588B82E92E0000F111F59
:101BB0000E0D1F1D04551F4FD801ED91FC9133965A
:101BC00084E1DF011D928A95E9F7892F90E0ED818C
:101BD000FE81EC19FD096F01C81AD90AC818D90885
:101BE000F5E1CF16D10418F023E1C22ED12C680FF5
:101BF000791F660D771DD8018D919C91A6010396E2
:101C00000E94ED21D801ED91FC91D08EC78AF70199
:101C100084898670823091F490E499838A83BB82B0
:101C2000AC820190F081E02D0284F385E02D44E048
:101C300050E0BE016F5F7F4FC7010995D8018D91BC
:101C40009C9126960FB6F894DEBF0FBECDBFDF91F4
:101C5000CF911F910F91FF90EF90DF90CF90BF90A9
:101C6000AF909F908F907F906F905F904F903F903C
:101C70002F900895FF920F931F93CF93DF93EC0162
:101C80008B01F42E44EF51E0B801CE010E94AB036A
:101C9000BC01892B99F0F801908192959F709F1556
:101CA00069F0933021F4CE010E944E0DEBCF6AE92A
:101CB00076E081EB92E00E941909E4CFCB01DF913D
:101CC000CF911F910F91FF9008956F927F928F9205
:101CD0009F92AF92BF92CF92DF92EF92FF920F93BB
:101CE0001F93CF93DF9387EA93E00E942B0B811120
:101CF00066C16BE473E081EB92E00E943C0400E17A
:101D000024E0D22E32E0C32E4DE5E42E44E0F42E42
:101D100052E8B52E66E0A62E7EE1972EEEE08E2EDE
:101D200010EE87EA93E00E941E0A882309F419C185
:101D30000093BB0369E871E08DEB93E00E94010A18
:101D4000DC01DC921196CC921197E091B303F091F3
:101D5000B4033097C9F0E491EE23B1F01196AC9240
:101D600011978091B703813009F0D2C011968C92FF
:101D700011978091B803813039F411968C911197A5
:101D8000806211968C931197E091AF03F091B003AC
:101D9000E491EE2339F011968C9111978068119699
:101DA0008C931197E091B103F091B203E491EE238B
:101DB00039F011968C911197806411968C9311973C
:101DC0008091BA0312968C9312978091B90313965F
:101DD0008C9313976091AD037091AE03FB018491D6
:101DE000882309F49CC0CD0104960E94010A6091E9
:101DF000B3037091B4036115710561F0FB01249187
:101E0000222341F00E94010A6091B5037091B6034C
:101E10000E94010A6091AF037091B003FB0124910D
:101E200021110E94010A6091B1037091B203FB017C
:101E3000249121110E94010A8B5B93402EEF280F01
:101E40002093BC03AC0155276BEB73E087EA93E06A
:101E50000E94320B882309F484C040E757E16BEB02
:101E600073E087EA93E00E94AB03843009F079C005
:101E70008091BB03803209F074C08091BC03823032
:101E800009F06FC0E091BE03E1116CC0C3E5D4E07E
:101E900088819981892B09F44BC093E0792EE881E0
:101EA000F981628060817181B092BB03809151049D
:101EB000909152049093BD038093BE03019690933A
:101EC0005204809351048FEB93E00E94010AFC01BD
:101ED0006192CF018B5B93402EEF280F2093BC03C0
:101EE000AC0155276BEB73E087EA93E00E94320B5D
:101EF0008823B9F149E06BEB73E087EA93E00E9435
:101F00003A0E892BA9F47A947110C9CFEEEF2AC04A
:101F1000823009F02ECF11969C9211972ACF1496F9
:101F20001C92149715961C921597CD0106965FCFBB
:101F30002296EC16FD0609F0ABCF6BE273E081EB65
:101F400092E0DF91CF911F910F91FF90EF90DF9082
:101F5000CF90BF90AF909F908F907F906F900C9498
:101F60001909EFEFEE5F6DE173E0EA3038F4F0E06D
:101F7000EE0FFF1FE65FFE4F6081718181EB92E003
:101F80000E94190967E373E081EB92E00E9419094E
:101F90001093BB031092BC0342E050E06BEB73E084
:101FA00087EA93E00E94320B87EA93E00E947E0961
:101FB00068E873E180E090E00E940F06B2CEDF9106
:101FC000CF911F910F91FF90EF90DF90CF90BF9036
:101FD000AF909F908F907F906F9008954F925F92F7
:101FE0006F927F929F92AF92BF92CF92DF92EF92C9
:101FF000FF920F931F93CF93DF93CDB7DEB7E89790
:102000000FB6F894DEBF0FBECDBF6C017B018A0115
:10201000A8956DE673E081EB92E00E943C046EE8C7
:1020200071E0CE0101965C010E94F30C6CE975E051
:10203000C5010E94950C61E971E00E947F0CB60118
:102040000E94950C69E472E00E947F0CB7010E9427
:10205000950C63E971E00E947F0CB8010E94950C19
:1020600065E971E00E947F0CBC01CE01C3960E941D
:10207000EA0CC5010E94210C0FA918AD011511052C
:1020800009F0B8C01982B50181EB92E00E94B20755
:1020900000917A0310917B0390907E0360917C0302
:1020A00070917D03F50101900020E9F731976F01F0
:1020B000CA18DB08780194E1E90EF11CFB010190DC
:1020C0000020E9F731979F01261B370B9110A2C022
:1020D0002E5F3F4FC601820F931F2C01712C612C84
:1020E00050E040E0A0E84A1651046104710450F049
:1020F00042E050E04114B0E45B066104710410F466
:1021000041E050E00296840F951F8739910528F031
:1021100043E950E06A01C21AD30A2C0D3D1D892DF6
:10212000880F8063F801848BC8014596422F4F7752
:10213000220F232F221F330B31952115310509F072
:102140004068DC014D93CD012115310579F70E94DE
:10215000010A3C01992089F0F801E655FF4F818181
:10216000D3018C93808111968C93B2E06B0E711C1D
:1021700080819181019691838083A601B501C3017D
:102180000E94ED21A3014C0D5D1D4E195F09D80180
:10219000ED91FC910284F385E02DB701C80109950A
:1021A000D82E81113AC063E673E081EB92E00E9481
:1021B000190980915A028F5F80935A02D12CCE0167
:1021C000C3960E94210C8D2DE8960FB6F894DEBFC1
:1021D0000FBECDBFDF91CF911F910F91FF90EF9078
:1021E000DF90CF90BF90AF909F907F906F905F9067
:1021F0004F9008950133110510F001E310E06BA931
:102200007CA9A801C5010E943222F501E00FF11F4F
:10221000108239CF2C5F3F4F5DCF9920B9F044E059
:10222000B701C8010E943A0E049709F0BCCFF8012B
:10223000868997899827892798270196E655FF4F21
:10224000208131818217930709F0ADCF6EE573E0ED
:1022500081EB92E00E94190910925A02B0CF2F929E
:102260003F924F925F926F927F928F929F92AF9226
:10227000BF92CF92DF92EF92FF920F931F93CF9373
:10228000DF9300D000D000D0CDB7DEB73B014A01CC
:102290002B833C8386549F4F2C01DC018D919C91B4
:1022A0000E94FB0AD12CC12C882309F4DCC0EB80EE
:1022B000FC80D12CC12CF201808191810E94FB0A0B
:1022C000882309F4D0C0F7FCCEC000E09E012F5F48
:1022D0003F4F47ED52E065EE72E0D2018D919C9147
:1022E0000E94BC09882309F4D8C049815A8170E052
:1022F00060E02AE081EB92E00E94C10766EC72E0A8
:1023000081EB92E00E941909A980BA80A114B1045E
:1023100009F4C3C0C6018A0D9B1D8816990628F4CE
:102320005401AC18BD0809F49EC0F201008111816E
:102330001801F8EE2F1AFEEF3F0A67EB72E0D101A9
:102340008D919C910E943C046A2DF10180819181C4
:102350000E94570840E064EF71E0C8010E94420605
:1023600020E0AE014F5F5F4F69EA72E0C8010E9452
:102370008E09882309F477C089819A819E838D8391
:10238000F12CE12CAD81BE81AE15BF0511F1BEEF80
:10239000EB16F104F1F0F10180819181DC01ED9106
:1023A000FC910084F185E02D0995892B59F3F10109
:1023B00080819181DC01ED91FC910284F385E02D17
:1023C0000995F801EE0DFF1D8687BFEFEB1AFB0A9A
:1023D000D9CFF801EE0DFF1D168649815A8170E0B4
:1023E00060E02AE081EB92E00E94C1076DE972E0B3
:1023F00081EB92E00E941909312CE32CF12C8981A8
:102400009A81E816F906B0F469E972E081EB92E08E
:102410000E943C04F801EE0DFF1D4685042E000CC1
:10242000550B660B770B20E181EB92E00E94C10710
:102430003394E3CF81EB92E00E945308E980FA8065
:10244000B801625F7F4FA701C3010E94E421EF281A
:1024500051F06A0C7B1CCA0CDB1CEB80FC808C14DA
:102460009D0409F032CFC60126960FB6F894DEBF60
:102470000FBECDBFDF91CF911F910F91FF90EF90D5
:10248000DF90CF90BF90AF909F908F907F906F9094
:102490005F904F903F902F900895A895E8E5EE1A31
:1024A000E2E0FE0A64E670E080E090E00E940F0641
:1024B00002CF1F920F920FB60F9211242F933F93CA
:1024C0004F935F936F937F938F939F93AF93BF933C
:1024D000EF93FF9381EB92E00E94DE04FF91EF9176
:1024E000BF91AF919F918F917F916F915F914F912C
:1024F0003F912F910F900FBE0F901F9018951F9234
:102500000F920FB60F9211242F938F939F93EF93F7
:10251000FF93E091C102F091C2028081E091C70275
:10252000F091C80282FD1BC090818091CA028F5F2A
:102530008F732091CB02821741F0E091CA02F0E044
:10254000EF54FD4F958F8093CA02FF91EF919F91B9
:102550008F912F910F900FBE0F901F901895808133
:10256000F4CF1F920F920FB60F9211242F933F9327
:102570008F939F93AF93BF938091A4029091A502F4
:10258000A091A602B091A70230919B0223E0230FF5
:102590002D3758F50196A11DB11D20939B02809304
:1025A000A4029093A502A093A602B093A7028091E3
:1025B0009C0290919D02A0919E02B0919F02019673
:1025C000A11DB11D80939C0290939D02A0939E0239
:1025D000B0939F02BF91AF919F918F913F912F91A7
:1025E0000F900FBE0F901F90189526E8230F0296AC
:1025F000A11DB11DD2CF1F920F920FB60F921124C1
:102600002F933F934F935F936F937F938F939F93FA
:10261000AF93BF93EF93FF93E0910201F091030119
:102620000995FF91EF91BF91AF919F918F917F910C
:102630006F915F914F913F912F910F900FBE0F902F
:102640001F9018951F920F920FB60F9211242F937F
:102650003F934F935F936F937F938F939F93AF932A
:10266000BF93EF93FF93E0910001F0910101099571
:10267000FF91EF91BF91AF919F918F917F916F915A
:102680005F914F913F912F910F900FBE0F901F9030
:1026900018951F920F920FB60F9211242F933F930C
:1026A0004F935F936F937F938F939F93AF93BF935A
:1026B000EF93FF93E091A202F091A302309749F0CB
:1026C000A685B7858585968D91FF14C09C91892339
:1026D000A1F4FF91EF91BF91AF919F918F917F9165
:1026E0006F915F914F913F912F910F900FBE0F907F
:1026F0001F9018959C91892361F7A389B4899C91B7
:102700008589809589238C93868997890197F1F72C
:10271000608D718DA685B785558538E020E0CB01A9
:102720000197F1F7822F90E095958795282F4C918E
:10273000452309F02068315091F7868D81FD209561
:102740008091A10290E001968F7399273091A002A9
:10275000381799F0A091A102B0E0A55ABD4F2C9373
:102760008093A102828D938D0197F1F7A389B4899B
:102770008C919589892B8C93ACCF868D8160868FC7
:10278000F1CF1F920F920FB60F9211240F900FBE30
:102790000F901F901895CF92DF92EF92FF921092B8
:1027A000B4021092B30298EEC92E93E0D92EE12C18
:1027B000F12CC092B502D092B602E092B702F0922C
:1027C000B80282E291E09093B2028093B10285EC6C
:1027D00090E09093BE028093BD0284EC90E09093D1
:1027E000C0028093BF0280EC90E09093C20280937D
:1027F000C10281EC90E09093C4028093C30282EC0A
:1028000090E09093C6028093C50286EC90E090938E
:10281000C8028093C7021092CA021092CB02109293
:10282000CC021092CD0284E391E090934F03809309
:102830004E031092500310925103109252031092C3
:1028400053038FEF9FEF909355038093540368E9F0
:1028500071E08CE995E00E94F30C109280051092D3
:102860007F05C0928105D0928205E0928305F092A7
:1028700084058CE491E090937E0580937D05109211
:10288000940510929305109296051092950510925A
:1028900098051092970510929A05109299056091EB
:1028A0009B056E7F6D7F60939B056695617081E0EF
:1028B000682788E00E946D0561E088E00E94B90504
:1028C000E2EFF6E0E491E0938D05EEEDF6E0E491C1
:1028D000F0E0EE0FFF1FE453F94F85919491909330
:1028E0008F0580938E0560E087E00E94B905809196
:1028F0009B0581FD04C061E087E00E946D0587E0D3
:1029000080938905E1EFF6E0E491E0938A05EDED2F
:10291000F6E0E491F0E0EE0FFF1FEE53F94F8591E2
:10292000949190938C0580938B051092660410927D
:10293000650488EE93E0A0E0B0E080936704909394
:102940006804A0936904B0936A048AE391E09093C9
:1029500064048093630489E080936F048AEB96E0BB
:102960009093710580937005109273051092720513
:10297000109275051092740510927C0510927B05DB
:102980001092760585EB96E0909378058093770515
:1029900082EB96E090937A058093790587EA93E03D
:1029A0002BE931E03093AA032093A9032BE537E00C
:1029B0003093AC032093AB032EE631E03093AE03AB
:1029C0002093AD032BEA31E03093B0032093AF03A3
:1029D00024EB31E03093B2032093B10310925404FE
:1029E00010925304109256041092550410925804F9
:1029F0001092570410925A041092590410925C04D9
:102A000010925B041092B4031092B3031092B603B9
:102A10001092B5031092B7031092B8032CE231E084
:102A20003093BA032093B9031092520410925104C8
:102A30002EE531E03093A8032093A70323E634E08A
:102A400030936204209361049093A6038093A503BE
:102A500025ED31E03093800320937F0310928103B2
:102A60001092970310929603109299031092980374
:102A700010929D0310929C0310929B0310929A0354
:102A800010929F0310929E031092A1031092A00334
:102A90001092A3031092A2031092A40390937B03BD
:102AA00080937A0389EF91E090937D0380937C0378
:102AB00010927E036EE671E084E793E00E94F30CCF
:102AC0006CE975E08EE693E00E94EA0C6CE172E03E
:102AD00088E693E00E94F30C6CE172E082E693E0FA
:102AE0000E94F30C6FE172E08CE593E00E94F30C1E
:102AF00064E272E086E593E0FF90EF90DF90CF9084
:102B00000C94F30CCF93DF93CDB7DEB7E0970FB6FD
:102B1000F894DEBF0FBECDBF789484B5826084BDCB
:102B200084B5816084BD85B5826085BD85B58160D1
:102B300085BD80916E00816080936E00109281004F
:102B4000809181008260809381008091810081600A
:102B500080938100809180008160809380008091CB
:102B6000B10084608093B1008091B0008160809357
:102B7000B00080917A00846080937A0080917A001E
:102B8000826080937A0080917A00816080937A00DD
:102B900080917A00806880937A001092C10061E091
:102BA0008CE00E94B90560E08CE00E946D05E09128
:102BB000C102F091C20282E08083E091BD02F091F7
:102BC000BE021082E091BF02F091C00280E18083DA
:102BD0001092C902E091C502F091C60286E080839E
:102BE000E091C302F091C402808180618083E09112
:102BF000C302F091C402808188608083E091C302A7
:102C0000F091C402808180688083E091C302F091DA
:102C1000C40280818F7D808362E376E081EB92E065
:102C20000E94190990E080E00E94461FE82E81E092
:102C300090E00E94461FF12CFE2CEE24E80EF11CC1
:102C40002FEFE21AF20A6F2D90E080E00E944E1FF3
:102C50006E2D81E090E00E944E1F6DE276E081EBE8
:102C600092E00E943C0447010F2C000CAA08BB080C
:102C70002AE0B501A401B7FE0DC06DE281EB92E040
:102C80000E94350444275527BA01481959096A0991
:102C90007B092AE081EB92E00E94C10781EB92E080
:102CA0000E9453086DE5C62E64E0D62EE3E5F4E0FD
:102CB000819191918F579340A9F0CE16DF06C1F70D
:102CC000E3E5F4E090E080E021913191232B09F0DD
:102CD000FAC0880F991FFC01ED5AFB4F8FE793E074
:102CE00091838083A89568E873E180E090E00E947A
:102CF0000F06A8959BE9492E552453942CE2622E89
:102D00007724739433243394222423943DE7A32E11
:102D100035E0B32E44E2842E46E0942EA89567ED6C
:102D200075E081EB92E00E941909109298051092CB
:102D300097051092960510929505109294051092A1
:102D400093058DE991E090939A0580939905809180
:102D50008905863108F045C0ADEBB0E0B09394052D
:102D6000A093930550929605409295057092980510
:102D7000609297059091680024E0883050F021E03F
:102D80008E3008F420E0B32D01C0BB0F2A95EAF77E
:102D90002B2F922B909368002DE630E0883050F076
:102DA0002BE630E08E3030F02CE630E0863110F04B
:102DB00030E020E03093910520939005282F30E0FB
:102DC000883008F086C0E32D01C0EE0F8A95EAF73F
:102DD0008E2F809392058091990590919A05019785
:102DE000F1F78091970590919805892B39F1E09141
:102DF000A202F091A30225E0ED37F207F9F0309737
:102E000039F0A389B4899C918589809589238C9315
:102E100080919B058E7F80939B051092A10210925A
:102E2000A002B092A302A092A202E0919005F091BC
:102E30009105808190919205892B8083B0927C05C9
:102E4000A0927B0561E080916F040E94B90561E06A
:102E500080916F040E946D056AE070E080E090E070
:102E60000E940F0660E080916F040E946D0564E689
:102E700070E080E090E00E940F0661E080916F04B6
:102E80000E946D056DEA75E081EB92E00E941909E0
:102E90000EE010E080917B0590917C05DC01ED91C6
:102EA000FC910084F185E02D0995892BF9F0809142
:102EB0007B0590917C05DC01ED91FC910284F3850A
:102EC000E02D0995E7CF01968530910509F0FCCEFC
:102ED00009CF8E3040F428503109832D01C0880F6E
:102EE0002A95EAF776CF2E503109F7CF4091790530
:102EF00050917A0524EF31E06AEA75E083E694E0C8
:102F00000E94640981116BC080917B0590917C05C2
:102F1000DC01ED91FC910084F185E02D0995892B70
:102F200061F080917B0590917C05DC01ED91FC9135
:102F30000284F385E02D0995E7CF24EF31E044EAE0
:102F400055E067EA75E083E694E00E946409811128
:102F500046C064EF71E080E090E00E940F060150EF
:102F6000110909F097CF62E775E081EB92E00E94CA
:102F700019094091790550917A0524EF31E06FE607
:102F800075E083E694E00E94640964E670E080E006
:102F900090E00E940F064091790550917A0524EF48
:102FA00031E06CE675E083E694E00E94640964E633
:102FB00070E080E090E00E940F064091790550910A
:102FC0007A0524EF31E069E675E083E694E00E943B
:102FD000640964E670E080E090E00E940F06409192
:102FE000790550917A0524EF31E064E675E083E6D7
:102FF00094E00E94640964E670E080E090E00E9442
:103000000F064091790550917A0524EF31E06FE584
:1030100075E083E694E00E9464096EEC75E0882315
:1030200009F48CC34091790550917A0524EF31E081
:1030300065E575E083E694E00E94640964E670E06B
:1030400080E090E00E940F0683E694E00E949806DC
:103050006EE475E081EB92E00E943C0469E272E06C
:1030600081EB92E00E946E0869E272E080917B053C
:1030700090917C050E946E0841E064EF71E083E668
:1030800094E00E94420667E475E081EB92E00E94C2
:103090003C0461E774E081EB92E00E946E086CE30F
:1030A00075E081E794E00E94DA1E892B21F083E02D
:1030B0008093700415C061E375E081E794E00E949D
:1030C000DA1E892B11F082E0F3CF66E275E081E72A
:1030D00094E00E94DA1E892B09F46FC020927004DC
:1030E00080917004813091F56FEF74E081EB92E094
:1030F0000E943C046DE272E081EB92E00E946E0857
:103100006DE272E080917B0590917C050E946E08D3
:1031100041E064EF71E083E694E00E94420668EFCC
:1031200074E081EB92E00E943C0461E774E081EB83
:1031300092E00E946E0860EF74E081E794E00E94E4
:10314000DA1E892B19F086E080937004409179058E
:1031500050917A0524EF31E069ED74E083E694E064
:103160000E94640964E372E08DE795E00E946E08B6
:1031700062ED74E081EB92E00E941909A89563EC7E
:1031800074E081EB92E00E94190901E09E012F5F3B
:103190003F4F46EB53E06EEB73E083E694E00E9412
:1031A000BC09882319F089818130E1F064EF71E076
:1031B00080E090E00E940F06E8CF66E175E081E7CD
:1031C00094E00E94DA1E892B11F084E071CF66E052
:1031D00075E081E794E00E94DA1E892B09F480CF24
:1031E00085E066CFA89568E873E180E090E00E94F2
:1031F0000F06A895909271058092700583E296E083
:10320000909373058093720582E296E09093750522
:103210008093740563EB74E081EB92E00E941909DE
:1032200020E23EE449E854E061E974E083E694E09A
:103230000E9464098823D1F04091790550917A0564
:1032400020E137E26CE774E083E694E00E946409D1
:10325000882361F04091790550917A0520E137E2A9
:1032600061E774E083E694E00E946409A89568E849
:1032700073E180E090E00E940F06A89568EA74E090
:1032800081EB92E00E94190920E23EE44EE554E011
:1032900066E674E083E694E00E9464094091790553
:1032A00050917A0520E137E263E574E083E694E02B
:1032B0000E946409882309F43FC240917905509126
:1032C0007A0520E137E265E374E083E694E00E944A
:1032D0006409882309F430C260917005709171050A
:1032E0004091790550917A056115710509F05FC12A
:1032F0004091790550917A0520E335E760ED73E060
:1033000083E694E00E946409882309F415C2409181
:10331000790550917A0520E137E267EC73E083E6A6
:1033200094E00E946409882309F406C2A8956FEF0F
:1033300075E081EB92E00E9419090E94E409082FD0
:1033400069EF75E081EB92E00E943C04602F81EB15
:1033500092E00E945708A89568E873E180E090E049
:103360000E940F06A8950E94650E69EE75E081EB3C
:1033700092E00E94190910E06CE573E0CE014396DB
:103380000E94EA0C1A8E198E1C8E1B8E1E8E1D8EAC
:103390004AE0BE016F5F7F4F802F90E00E941C1FAC
:1033A000BE016F5F7F4FCE0149960E94C90C18A2E3
:1033B0001F8E1AA219A21CA21BA24AE0BE016F5FB7
:1033C0007F4FC7010E94F41EBE016F5F7F4FCE0189
:1033D0004F960E94C90C62E472E0CE0185960E946D
:1033E000F30CBE01615E7F4FCE0185960E94950C65
:1033F00066E472E00E947F0CBE01675E7F4F0E9410
:10340000950CBC01CE0101960E94EA0C6BE472E0BF
:10341000CE018B960E94F30CAE014D5E5F4FBE0154
:103420006F5F7F4FCE018B960E94EE0F082FCE016B
:103430008B960E94210CCE0101960E94210CCE0198
:1034400085960E94210CCE014F960E94210CCE0140
:1034500049960E94210CCE0143960E94210C002324
:1034600009F477C1EE24E39400E010E080ECB82E7C
:10347000A8950E94650EA895E3E5F4E081919191ED
:10348000009729F0DC0195962C91211183C1CE166D
:10349000DF06A1F748E853E16BEB73E087EA93E0BE
:1034A0000E94AB03BC0187EA93E00E944E0D009797
:1034B00009F070C18091B002882309F458C02FB779
:1034C000F8948091A4029091A502A091A602B091D7
:1034D000A7022FBF4091AC025091AD026091AE02A5
:1034E0007091AF02841B950BA60BB70B4091A802FD
:1034F0005091A9026091AA027091AB0284179507BE
:10350000A607B707A0F160E08CE00E946D0562E4B9
:1035100076E081EB92E00E94190966E573E0CE0146
:1035200001960E94EA0C6FE472E0CE0143960E947D
:10353000F30C67E572E0CE0149960E94F30CAE01F0
:103540004F5F5F4FBE016D5E7F4FCE0149960E9477
:10355000EE0FCE0149960E94210CCE0143960E94A7
:10356000210CCE0101960E94210C1092B002B09263
:10357000BB031092BC0342E050E06BEB73E087EAC0
:1035800093E00E94320B811199C26DE376E081EBEA
:1035900092E00E9419090115110509F469CF0E94F2
:1035A000CA04882309F464CF0E94000061CF81E23D
:1035B00094E00E94AA08882309F4BEC083E694E040
:1035C0000E94980667E174E080917B0590917C05EC
:1035D0000E943C04609170057091710580917B059B
:1035E00090917C050E943C04809172059091730536
:1035F000892B91F06EE372E080917B0590917C05C0
:103600000E94B207609172057091730580917B05ED
:1036100090917C050E943C0480917B0590917C05F3
:103620002091740530917505232B71F06EE372E0E3
:103630000E94B207609174057091750580917B05B9
:1036400090917C050E943C0460E472E080917B05CF
:1036500090917C050E946E0860E174E081EB92E03D
:103660000E943C0466E074E081EB92E00E943C041E
:10367000609170057091710581EB92E00E943C04AD
:103680008091720590917305892B71F06EE372E061
:1036900081EB92E00E94B207609172057091730510
:1036A00081EB92E00E943C04809174059091750535
:1036B000892B71F06EE372E081EB92E00E94B20719
:1036C000609174057091750581EB92E00E943C0455
:1036D00060E472E081EB92E00E946E0860917905EF
:1036E00070917A0583E694E00E948508882321F191
:1036F00060917205709173054091790550917A053A
:103700006115710599F4609174057091750540918A
:10371000790550917A056115710509F4E9CD8DEDB2
:1037200093E00E94AA088111E3CD06C081EF93E0E7
:103730000E94AA088111E7CF6CE974E081EB92E066
:103740000E94190963E176E081EB92E00E94190979
:10375000E5CA0E94E409082F63EE75E081EB92E070
:103760000E943C04602F81EB92E00E9457081F5F8B
:1037700061EE75E081EB92E00E943C04612F81EBE9
:1037800092E00E945708A8950E94650E153109F035
:10379000F3CD68CEFC0115A28F57934009F06CCE93
:1037A00062E873E084E793E00E94C90C68E776E082
:1037B00081EB92E00E943C044091780350917903A0
:1037C000609174037091750381EB92E00E94600434
:1037D00066E776E081EB92E00E94190942E050E052
:1037E00070E060E0CE0101960E94040D8D819E8103
:1037F000892B09F44FC26EE871E089819A810E9499
:103800000A22892B09F046C265E971E0CE01439690
:103810000E94F30CCE0143960E94DF0AF12C019620
:10382000A9F161E971E0CE0149960E94F30CCE0145
:1038300049960E94DF0AF12C019621F169E472E0B9
:10384000CE014F960E94F30CCE014F960E94DF0AE4
:10385000F12C019699F063E971E0CE0185960E9402
:10386000F30CCE0185960E94DF0AFF24F3940196A3
:1038700009F4F12CCE0185960E94210CCE014F96C1
:103880000E94210CCE0149960E94210CCE01439644
:103890000E94210CCE0101960E94210CFF2009F408
:1038A0000AC161E971E0CE0143960E94F30CCE019A
:1038B00043960E94DF0A4C016EE871E0CE01499602
:1038C0000E94F30CCE0149960E94DF0ABC016E5F94
:1038D0007F4FA401CE0101960E94040DBE016F5FCF
:1038E0007F4F8EE693E00E94D60BCE0101960E9498
:1038F000210CCE0149960E94210CCE0143960E94D4
:10390000210C20917203309173038091A005909156
:10391000A1052817390709F0CBC080916E0390915B
:103920006F0360919C0570919D05009709F4D3C0C9
:103930006115710539F4232B09F4DAC0DC018C918F
:1039400090E0D4C00E940A22D1C061E572E0C401B7
:103950000E940A22892B09F067C061E08CE00E9476
:103960006D056FE676E081EB92E00E9419096CE547
:1039700073E086E593E00E94D30C6CE573E0CE0122
:1039800001960E94EA0C62E673E0CE0143960E9423
:10399000EA0C64E572E0CE0149960E94F30CAE0198
:1039A0004F5F5F4FBE016D5E7F4FCE0149960E9413
:1039B000EE0FCE0149960E94210CCE0143960E9443
:1039C000210CCE0101960E94210CE092B0022FB78B
:1039D000F8948091A4029091A502A091A602B091C2
:1039E000A7022FBF8093AC029093AD02A093AE02CA
:1039F000B093AF02809162039091630320E030E0C6
:103A0000A901009721F00E94A11E9B01AC01A0E634
:103A1000BAEE0E945C1F6093A8027093A902809383
:103A2000AA029093AB0228CD80915C0390915D0334
:103A300066E676E0892B09F428C160E08CE00E94FC
:103A40006D0563E676E081EB92E00E9419096CE572
:103A500073E086E593E00E94D30C6CE573E0CE0141
:103A600001960E94EA0C6FE472E0CE0143960E9438
:103A7000F30C67E572E0CE0149960E94F30CAE01AB
:103A80004F5F5F4FBE016D5E7F4FCE0149960E9432
:103A9000EE0FCE0149960E94210CCE0143960E9462
:103AA000210CCE0101960E94210C1092B002E4CCB0
:103AB00063E576E0EAC065E476E0E7C04DE06BEBF5
:103AC00073E087EA93E00E943A0E8091BB03803D49
:103AD00009F05BCD60CD6115710551F0232B41F0EC
:103AE000FB01808190E0919581959109892B01F7E7
:103AF00069E472E0CE0143960E94F30CCE01439636
:103B00000E94DF0A4C0161E971E0CE0149960E94F2
:103B1000F30CCE0149960E94DF0ABC016F5F7F4F14
:103B2000A401CE0101960E94040DBE016F5F7F4F7C
:103B300088E693E00E94D60BCE0101960E94210CEC
:103B4000CE0149960E94210CCE0143960E94210C81
:103B500063E971E0CE0143960E94F30CCE014396D7
:103B60000E94DF0A4C0169E472E0CE0149960E948E
:103B7000F30CCE0149960E94DF0ABC016F5F7F4FB4
:103B8000A401CE0101960E94040DBE016F5F7F4F1C
:103B900082E693E00E94D60BCE0101960E94210C92
:103BA000CE0149960E94210CCE0143960E94210C21
:103BB00065E971E0CE0143960E94F30CCE01439675
:103BC0000E94DF0A4C0163E971E0CE0149960E9430
:103BD000F30CCE0149960E94DF0ABC016F5F7F4F54
:103BE000A401CE0101960E94040DBE016F5F7F4FBC
:103BF0008CE593E00E94D60BCE0101960E94210C29
:103C0000CE0149960E94210CCE0143960E94210CC0
:103C100080916C0390916D03892B09F405CF8090FE
:103C20006803909069036EE472E0C4010E940A2266
:103C3000892B09F08ACE6CE573E0CE0101960E94D3
:103C4000EA0C62E572E0CE0143960E94F30C6EE44A
:103C500072E0CE0149960E94F30CAE014F5F5F4FB8
:103C6000BE016D5E7F4FCE0149960E94EE0FCE01E0
:103C700049960E94210CCE0143960E94210CCE0150
:103C800001960E94210C62E776E081EB92E00E94AF
:103C90001909F2CBF12CFECD86E593E00E94210CB0
:103CA0008CE593E00E94210C82E693E00E94210CB7
:103CB00088E693E00E94210C8EE693E00E94210C9E
:103CC00084E793E00E94210C8CE491E090937E05C0
:103CD00080937D058091A2029091A3028D5795401B
:103CE00071F4E0919005F091910590818091920599
:103CF0008095892380831092A3021092A2028CE9FE
:103D000095E00C94210CFC0188279927E8942191D7
:103D10002032E9F3293010F02E30C8F32B3241F075
:103D20002D3239F4689404C00E94141F820F911D33
:103D3000219120532A30C0F31EF4909581959F4F16
:103D400008951F93FC0199278827BC01E8941191DD
:103D50001032E9F3193010F01E30C8F31B3251F065
:103D60001D3249F4689406C00E94FF1E610F711D48
:103D7000811D911D119110531A30B0F33EF49095AE
:103D80008095709561957F4F8F4F9F4F1F9108953C
:103D9000FB01DC018D91059080190110D9F3990B7D
:103DA0000895FC0105900020E9F7809590958E0F0D
:103DB0009F1F0895FB0155915523A9F0BF01DC0118
:103DC0004D9145174111E1F759F4CD0105900020BF
:103DD00049F04D9140154111C9F3FB014111EFCF5D
:103DE00081E090E001970895BB274A3031F4992390
:103DF00022F4BDE2909581959F4F0C941D1F592F81
:103E0000482F372F262F660F771F881F991F660FA1
:103E1000771F881F991F620F731F841F951F660FDE
:103E2000771F881F991F08957AE0979F902D879F8D
:103E3000802D910D11240895BB27FB015527AA273A
:103E4000880F991FAA1FA41710F0A41B8395505127
:103E5000B9F7A05DAA3308F0A95DA193009779F79F
:103E6000B111B1931192CB010C94361FDC01FC010E
:103E7000672F71917723E1F7329704C07C916D939E
:103E800070836291AE17BF07C8F30895F999FECF0A
:103E900092BD81BDF89A992780B50895262FF9998A
:103EA000FECF1FBA92BD81BD20BD0FB6F894FA9A1D
:103EB000F99A0FBE019608950E949E1FA59F900D2E
:103EC000B49F900DA49F800D911D112408952F92F1
:103ED0003F924F925F926F927F928F929F92AF929A
:103EE000BF92CF92DF92EF92FF920F931F93CF93E7
:103EF000DF93CDB7DEB7CA1BDB0B0FB6F894DEBF7E
:103F00000FBECDBF09942A88398848885F846E84A3
:103F10007D848C849B84AA84B984C884DF80EE80ED
:103F2000FD800C811B81AA81B981CE0FD11D0FB6F6
:103F3000F894DEBF0FBECDBFED010895A29FB00182
:103F4000B39FC001A39F700D811D1124911DB29FCD
:103F5000700D811D1124911D089597FB072E16F4F5
:103F6000009407D077FD09D00E94E31F07FC05D01D
:103F70003EF4909581959F4F0895709561957F4F80
:103F80000895A1E21A2EAA1BBB1BFD010DC0AA1F9A
:103F9000BB1FEE1FFF1FA217B307E407F50720F0B2
:103FA000A21BB30BE40BF50B661F771F881F991F2D
:103FB0001A9469F760957095809590959B01AC0176
:103FC000BD01CF010895AA1BBB1B51E107C0AA1F69
:103FD000BB1FA617B70710F0A61BB70B881F991FAA
:103FE0005A95A9F780959095BC01CD010895EE0FE3
:103FF000FF1F0590F491E02D09940F931F93CF9329
:10400000DF938230910510F482E090E0E091A40506
:10401000F091A50530E020E0B0E0A0E0309799F401
:104020002115310509F44AC0281B390B243031050C
:10403000D8F58A819B816115710589F1FB01938314
:104040008283FE0111C04081518102811381481792
:104050005907E0F04817590799F4109761F0129644
:104060000C93129713961C933296CF01DF91CF9148
:104070001F910F9108950093A4051093A505F4CF07
:104080002115310551F04217530738F0A901DB0122
:104090009A01BD01DF01F801C1CFEF01F9CF909383
:1040A000A5058093A405CDCFFE01E20FF31F8193F8
:1040B00091932250310939832883D7CF2091A205CB
:1040C0003091A305232B41F4209106013091070183
:1040D0003093A3052093A20520910401309105019E
:1040E0002115310541F42DB73EB74091080150919B
:1040F0000901241B350BE091A205F091A305E217FD
:10410000F307A0F42E1B3F0B2817390778F0AC01FA
:104110004E5F5F4F2417350748F04E0F5F1F5093D7
:10412000A3054093A205819391939FCFF0E0E0E037
:104130009CCFCF93DF930097E9F0FC013297138275
:104140001282A091A405B091A505ED0130E020E018
:104150001097A1F420813181820F931F2091A20535
:104160003091A3052817390709F061C0F093A30522
:10417000E093A205DF91CF910895EA01CE17DF0702
:10418000E8F54A815B819E0141155105B1F7E901CE
:10419000FB83EA8349915991C40FD51FEC17FD07A2
:1041A00061F4808191810296840F951FE9019983C2
:1041B0008883828193819B838A83F0E0E0E012967A
:1041C0008D919C9113970097B9F52D913C91119782
:1041D000CD010296820F931F2091A2053091A30575
:1041E0002817390739F6309751F51092A505109226
:1041F000A405B093A305A093A205BCCFD383C2832B
:1042000040815181840F951FC817D90761F44E5F13
:104210005F4F88819981480F591F518340838A815C
:104220009B81938382832115310509F0B0CFF093F0
:10423000A505E093A4059ECFFD01DC01C0CF13824C
:104240001282D7CFB0E0A0E0E8E2F1E20C94691F5F
:104250008C01009751F4CB010E94FD1F8C01C80115
:10426000CDB7DEB7E0E10C94851FFC01E60FF71F28
:104270009C0122503109E217F30708F49DC0D901CF
:10428000CD91DC911197C617D70798F0C530D105AD
:1042900030F3CE0104978617970708F3C61BD70B98
:1042A0002297C193D1936D937C93CF010E94992063
:1042B000D6CF5B01AC1ABD0A4C018C0E9D1EA0919D
:1042C000A405B091A505512C412CF12CE12C10979F
:1042D00031F58091A2059091A3058815990509F003
:1042E0005CC04616570608F058C0809104019091B2
:1042F0000501009741F48DB79EB740910801509198
:104300000901841B950BE817F90708F055C0F093D5
:10431000A305E093A205F90171836083A0CF8D917D
:104320009C91119712966C90129713967C9013970C
:10433000A815B90559F56C0142E0C40ED11CCA1488
:10434000DB0420F1AC014A195B09DA0112961597DA
:1043500080F06282738251834083D9016D937C9394
:10436000E114F10471F0D7011396FC93EE931297C8
:1043700076CF22968C0F9D1FF90191838083F301E4
:10438000EFCFF093A505E093A40569CF4816590631
:1043900008F42C017D01D3019ACFCB010E94FD1FAF
:1043A0007C01009749F0AE01B8010E94E421C801E8
:1043B0000E949920870153CF10E000E050CF81E0A8
:1043C00090E0F8940C945B22FB01DC0102C00190A8
:1043D0000D9241505040D8F708956817790768F456
:1043E000FB01DC01E40FF51FA40FB51F02C0029012
:1043F0000E9241505040D8F708950C94E421FC01EE
:104400008191861721F08823D9F79927089531974C
:10441000CF010895FB01DC018D91019080190110FD
:10442000D9F3990B0895FB01DC0101900D92002056
:10443000E1F70895FB01DC014150504088F08D9177
:1044400081341CF08B350CF4805E619161341CF07A
:104450006B350CF4605E861B611171F3990B089546
:10446000881BFCCFFB01DC014150504048F001901B
:104470000D920020C9F701C01D9241505040E0F755
:104480000895FB0151915523A9F0BF01DC014D9125
:1044900045174111E1F759F4CD010190002049F091
:1044A0004D9140154111C9F3FB014111EFCF81E05E
:1044B00090E00197089513E0C0E8D3E004C0FE0146
:1044C0000E94F71F2196C138D107C9F7F894FFCF92
:1044D000410641060000A60580000D02FB011D03F8
:1044E000B601710151011E010401CD0068000000F8
:1044F0000000000560048D044D05BE049C04B0045A
:10450000000000000D0800000000E8066004AE078F
:10451000C406F406DC06D00600000000190760049B
:10452000AE07180775078D07000700000000B107E8
:10453000290C2B0B1E0A7E09320B2F110D0A00537A
:10454000544154453A20434F4E4E454354204F4B1F
:104550000053454E44204F4B004D515454002A7B8C
:10456000003B002D007D2A00333600696F2E616408
:104570006166727569742E636F6D0067736D70721A
:104580006F6A650061696F5F4B4C466232367A3301
:10459000643779717045344E46304E6850736F748D
:1045A000304165410067736D70726F6A652F666593
:1045B0006564732F73756C616D6153657276657296
:1045C00064656E476964656E0067736D70726F6ACB
:1045D000652F66656564732F73756C616D614369E2
:1045E00068617A64616E476964656E002D320031DE
:1045F0003131310032323232004154490041542BC2
:10460000474D4D0041542B434D45453D3200222C32
:10461000220072733A005F73713A00303500303017
:0A4620000030310030330030340068
:00000001FF
