:100000000C945D000C9485000C9485000C94850084
:100010000C9485000C9485000C9485000C9485004C
:100020000C9485000C9485000C9485000C9485003C
:100030000C9485000C9485000C9485000C9485002C
:100040000C946A020C9485000C9438020C941202F1
:100050000C9485000C9485000C9485000C9485000C
:100060000C9485000C94850000000008000201003B
:100070000003040700000000000000000000000072
:10008000250028002B0000000000240027002A0083
:10009000040404040404040402020202020203032E
:1000A0000303030301020408102040800102040836
:1000B0001020010204081020270411241FBECFEFD6
:1000C000D8E0DEBFCDBF11E0A0E0B1E0E6E6F9E0A8
:1000D00002C005900D92AA32B107D9F721E0AAE239
:1000E000B1E001C01D92A23DB207E1F710E0CDE5FD
:1000F000D0E004C02197FE010E94AB04CC35D107AB
:10010000C9F70E94B4020C94B1040C940000AF92A1
:10011000BF92CF92DF92EF92FF920F931F93CF93F4
:10012000DF936C017B018B01040F151FEB015E0156
:10013000AE18BF08C017D10759F06991D601ED91EB
:10014000FC910190F081E02DC6010995892B79F78A
:10015000C501DF91CF911F910F91FF90EF90DF903C
:10016000CF90BF90AF900895FC01538D448D252F03
:1001700030E0842F90E0821B930B541710F0CF9641
:10018000089501970895FC01918D828D981761F073
:10019000A28DAE0FBF2FB11D5D968C91928D9F5F8A
:1001A0009F73928F90E008958FEF9FEF0895FC0169
:1001B000918D828D981731F0828DE80FF11D858D1C
:1001C00090E008958FEF9FEF0895FC01918D228DAF
:1001D000892F90E0805C9F4F821B91098F73992734
:1001E000089585E391E00E94E50021E0892B09F460
:1001F00020E0822F089580E090E0892B29F00E9472
:10020000F10081110C9400000895FC01A48DA80F49
:10021000B92FB11DA35ABF4F2C91848D90E0019648
:100220008F739927848FA689B7892C93A089B18968
:100230008C91837080648C93938D848D981306C009
:100240000288F389E02D80818F7D80830895EF926D
:10025000FF920F931F93CF93DF93EC0181E0888F80
:100260009B8D8C8D98131AC0E889F989808185FF50
:1002700015C09FB7F894EE89FF896083E889F989F2
:1002800080818370806480839FBF81E090E0DF91F4
:10029000CF911F910F91FF90EF900895F62E0B8D47
:1002A00010E00F5F1F4F0F731127E02E8C8D8E1102
:1002B0000CC00FB607FCFACFE889F989808185FF69
:1002C000F5CFCE010E940501F1CFEB8DEC0FFD2F94
:1002D000F11DE35AFF4FF0829FB7F8940B8FEA8924
:1002E000FB8980818062CFCFCF93DF93EC01888D33
:1002F0008823B9F0AA89BB89E889F9898C9185FDA1
:1003000003C0808186FD0DC00FB607FCF7CF8C912E
:1003100085FFF2CF808185FFEDCFCE010E940501E0
:10032000E9CFDF91CF91089590E0FC01E859FF4FAC
:100330002491FC01EC55FF4F3491FC01E057FF4F35
:10034000E491EE23C9F0222339F0233001F1A8F41F
:10035000213019F1223029F1F0E0EE0FFF1FE458AF
:10036000FF4FA591B4918FB7F894EC91611126C01D
:1003700030953E233C938FBF08952730A9F0283055
:10038000C9F0243049F7809180008F7D03C08091AF
:1003900080008F7780938000DFCF84B58F7784BD16
:1003A000DBCF84B58F7DFBCF8091B0008F778093BA
:1003B000B000D2CF8091B0008F7DF9CF3E2BDACF45
:1003C0003FB7F89480912F0190913001A0913101B5
:1003D000B091320126B5A89B05C02F3F19F00196B8
:1003E000A11DB11D3FBFBA2FA92F982F8827BC018F
:1003F000CD01620F711D811D911D42E0660F771FB7
:10040000881F991F4A95D1F70895FC01019000209B
:10041000E9F73197AF01481B590BBC0185E391E027
:100420000C9487001F920F920FB60F9211242F93F6
:100430003F934F935F936F937F938F939F93AF936C
:10044000BF93EF93FF9385E391E00E940501FF9135
:10045000EF91BF91AF919F918F917F916F915F913C
:100460004F913F912F910F900FBE0F901F901895B5
:100470001F920F920FB60F9211242F938F939F9379
:10048000EF93FF93E0914501F09146018081E09167
:100490004B01F0914C0182FD1BC0908180914E0177
:1004A0008F5F8F7320914F01821741F0E0914E01D1
:1004B000F0E0EB5CFE4F958F80934E01FF91EF9142
:1004C0009F918F912F910F900FBE0F901F901895B5
:1004D0008081F4CF1F920F920FB60F9211242F93A9
:1004E0003F938F939F93AF93BF9380912B019091F4
:1004F0002C01A0912D01B0912E0130912A0123E011
:10050000230F2D3758F50196A11DB11D20932A0107
:1005100080932B0190932C01A0932D01B0932E0179
:1005200080912F0190913001A0913101B091320161
:100530000196A11DB11D80932F0190933001A093CE
:100540003101B0933201BF91AF919F918F913F9153
:100550002F910F900FBE0F901F90189526E8230F34
:100560000296A11DB11DD2CFCF93DF93CDB7DEB7D9
:10057000A1970FB6F894DEBF0FBECDBF789484B5B7
:10058000826084BD84B5816084BD85B5826085BD8F
:1005900085B5816085BD80916E00816080936E001D
:1005A000109281008091810082608093810080910F
:1005B00081008160809381008091800081608093C0
:1005C00080008091B10084608093B1008091B00080
:1005D00081608093B00080917A00846080937A007B
:1005E00080917A00826080937A0080917A008160A5
:1005F00080937A0080917A00806880937A001092CC
:10060000C100E2EBF0E02491EEE9F0E08491882370
:10061000C9F090E0880F991FFC01EA57FF4F459100
:100620005491FC01E458FF4FA591B4919FB7F89401
:10063000FA0180812095822380838C91E22FE82328
:10064000EC939FBFE0EBF0E02491ECE9F0E08491C3
:10065000882399F090E0880F991FFC01EA57FF4F1B
:10066000A591B491FC01E458FF4F859194918FB707
:10067000F894EC91E22BEC938FBFE0914501F0915F
:10068000460182E08083E0914101F09142011082B5
:10069000E0914301F09144018FEC808310924D0171
:1006A000E0914901F0914A0186E08083E0914701A1
:1006B000F0914801808180618083E0914701F09151
:1006C0004801808188608083E0914701F091480172
:1006D000808180688083E0914701F09148018081AA
:1006E0008F7D80839AE0892E912CA12CB12C20E063
:1006F000222E20E0322EF0E4F0937C0080917A00EC
:10070000806480937A0080917A0086FDFCCF80918E
:100710007800A0917900BA2FA82F28E532E00E9436
:10072000A4042FEF33E040E050E00E94540469013C
:100730007A013093340120933301F7FE6DC06DE2EE
:1007400085E391E00E94270122273327A9012C1974
:100750003D094E095F0919A28E010F5D1F4FCA01A5
:10076000B901A50194010E947304605DF8016293D0
:100770008F01211531054105510589F70115110535
:1007800019F0C8010E94050282E191E00E94050271
:1007900080913301909134018C3291400CF450C01F
:1007A00061E08CE00E94940185E191E00E940502E5
:1007B00082E191E00E9405020E94E0012B013C01D0
:1007C00088ECC82ED12CE12CF12C0E94E001641998
:1007D000750986099709683E734081059105A8F35C
:1007E00021E0C21AD108E108F10888EE480E83E042
:1007F000581E611C711CC114D104E104F10429F7D5
:100800002114310409F477CF0E94F100882309F400
:1008100072CF0E9400006FCF19A28E010F5D1F4F93
:10082000CA01B901A50194010E947304605DF80139
:1008300062938F01211531054105510589F79ECF3E
:1008400060E08CE00E9494018FE191E0AFCFE5E39E
:10085000F1E01382128288EE93E0A0E0B0E084839E
:100860009583A683B78384E091E09183808385ECB0
:1008700090E09587848784EC90E09787868780EC6A
:1008800090E0918B808B81EC90E0938B828B82EC5B
:1008900090E0958B848B86EC90E0978B868B118E05
:1008A000128E138E148E0895052E97FB1EF400945D
:1008B0000E946B0457FD07D00E94730407FC03D00D
:1008C0004EF40C946B0450954095309521953F4F14
:1008D0004F4F5F4F089590958095709561957F4F2C
:1008E0008F4F9F4F0895A1E21A2EAA1BBB1BFD013B
:1008F0000DC0AA1FBB1FEE1FFF1FA217B307E407FF
:10090000F50720F0A21BB30BE40BF50B661F771F56
:10091000881F991F1A9469F7609570958095909536
:100920009B01AC01BD01CF010895A29FB001B39F0F
:10093000C001A39F700D811D1124911DB29F700DE8
:10094000811D1124911D08950E949504B7FF0895FB
:10095000821B930B0895EE0FFF1F0590F491E02D7D
:060960000994F894FFCF9A
:100966000000000027018700B4007401E500C30001
:10097600D7000D0A004D4F544F52204F4E20004DC8
:0A0986004F544F52204F4646200008
:00000001FF
