:100000000C9463000C948B000C948B000C940C04E7
:100010000C940C040C940C040C948B000C948B002A
:100020000C948B000C948B000C948B000C948B0024
:100030000C948B000C948B000C948B000C948B0014
:100040000C94C2030C948B000C9490030C946A03E0
:100050000C948B000C948B000C948B000C948B00F4
:100060000C948B000C948B000000000024002700EF
:100070002A0000000008000201000003040700003D
:1000800000000000000000000000230026002900FE
:1000900000000000250028002B00040404040404D0
:1000A0000404020202020202030303030303010227
:1000B00004081020408001020408102001020408F6
:1000C00010208404830711241FBECFEFD8E0DEBFC9
:1000D000CDBF11E0A0E0B1E0E4EBF4E102C0059097
:1000E0000D92AA36B107D9F722E0AAE6B1E001C025
:1000F0001D92A937B207E1F710E0C2E6D0E004C0D4
:100100002197FE010E945508C136D107C9F70E9408
:100110002F050C944D0A0C940000AF92BF92CF9221
:10012000DF92EF92FF920F931F93CF93DF936C01B7
:100130007B018B01040F151FEB015E01AE18BF0898
:10014000C017D10759F06991D601ED91FC9101904A
:10015000F081E02DC6010995892B79F7C501DF9162
:10016000CF911F910F91FF90EF90DF90CF90BF90B4
:10017000AF900895FC01538D448D252F30E0842FDE
:1001800090E0821B930B541710F0CF9608950197BF
:100190000895FC01918D828D981761F0A28DAE0FAC
:1001A000BF2FB11D5D968C91928D9F5F9F73928F33
:1001B00090E008958FEF9FEF0895FC01918D828D5F
:1001C000981731F0828DE80FF11D858D90E008952C
:1001D0008FEF9FEF0895FC01918D228D892F90E084
:1001E000805C9F4F821B91098F739927089589EB3B
:1001F00091E00E94EB0021E0892B09F420E0822F9E
:10020000089580E090E0892B29F00E94F700811189
:100210000C9400000895FC01A48DA80FB92FB11D06
:10022000A35ABF4F2C91848D90E001968F7399272C
:10023000848FA689B7892C93A089B1898C9183700A
:1002400080648C93938D848D981306C00288F38903
:10025000E02D80818F7D80830895EF92FF920F9330
:100260001F93CF93DF93EC0181E0888F9B8D8C8D62
:1002700098131AC0E889F989808185FF15C09FB756
:10028000F894EE89FF896083E889F9898081837019
:10029000806480839FBF81E090E0DF91CF911F91C8
:1002A0000F91FF90EF900895F62E0B8D10E00F5FE9
:1002B0001F4F0F731127E02E8C8D8E110CC00FB6BF
:1002C00007FCFACFE889F989808185FFF5CFCE0157
:1002D0000E940B01F1CFEB8DEC0FFD2FF11DE35AC6
:1002E000FF4FF0829FB7F8940B8FEA89FB898081DA
:1002F0008062CFCFCF93DF93EC01888D8823B9F054
:10030000AA89BB89E889F9898C9185FD03C0808120
:1003100086FD0DC00FB607FCF7CF8C9185FFF2CF9D
:10032000808185FFEDCFCE010E940B01E9CFDF91E7
:10033000CF91089590E0FC01EE58FF4F2491FC010D
:10034000E255FF4F3491FC01E656FF4FE491EE2356
:10035000C9F0222339F0233001F1A8F4213019F13A
:10036000223029F1F0E0EE0FFF1FE057FF4FA5917B
:10037000B4918FB7F894EC91611126C030953E236B
:100380003C938FBF08952730A9F02830C9F024305E
:1003900049F7809180008F7D03C0809180008F7726
:1003A00080938000DFCF84B58F7784BDDBCF84B5A9
:1003B0008F7DFBCF8091B0008F778093B000D2CF3C
:1003C0008091B0008F7DF9CF3E2BDACFCF93DF93B2
:1003D00090E0FC01E255FF4F249186569F4FFC01AF
:1003E00084918823D1F090E0880F991FFC01E8598F
:1003F000FF4FA591B491FC01E057FF4FC591D491F7
:1004000061110EC09FB7F8948C91E22FE0958E2376
:100410008C932881E223E8839FBFDF91CF910895D9
:100420008FB7F894EC91E22BEC938FBFF6CF3FB7E8
:10043000F8948091AF019091B001A091B101B09179
:10044000B20126B5A89B05C02F3F19F00196A11D4A
:10045000B11D3FBFBA2FA92F982F8827BC01CD010E
:10046000620F711D811D911D42E0660F771F881F6D
:10047000991F4A95D1F708958F929F92AF92BF929C
:10048000CF92DF92EF92FF924B015C010E94170224
:100490006B017C010E9417026C197D098E099F096E
:1004A000683E734081059105A8F321E0821A910806
:1004B000A108B10888EEC80E83E0D81EE11CF11C2B
:1004C00081149104A104B10429F7FF90EF90DF900B
:1004D000CF90BF90AF909F908F9008952091B501DD
:1004E0003091B6012817390771F49091B3018091CA
:1004F000B401981741F0E091B301F0E0E659FE4FE6
:10050000808190E008958FEF9FEF08950895EF9216
:10051000FF920F931F93CF93DF93DC015C96ED90D6
:10052000FC905D97E114F10479F481E090E013967A
:100530009C938E93129790E080E0DF91CF911F9172
:100540000F91FF90EF9008955196ED91FC91529785
:1005500050968C915097982F90950FB75E962C914E
:100560005E97122F127021FD6095F894208111235F
:1005700019F1282B2083E7012197F1F728E0462F76
:1005800050E0308160FF1AC0382B3083E70121979B
:10059000F1F7BA0175956795215089F7112381F01C
:1005A0008081892380830FBF5C968D919C910197F8
:1005B000F1F781E090E0C1CF2923DCCF3923E5CFEB
:1005C0009081892BEFCF2091B5013091B60128178A
:1005D000390771F48091B4012091B30190E0805CFF
:1005E0009F4F821B910960E470E00E9426080895E5
:1005F00090E080E008952091B5013091B601281770
:100600003907B9F49091B3018091B401981789F03A
:10061000E091B301F0E0E659FE4F80812091B301F3
:1006200030E02F5F3F4F2F7333272093B30190E0CB
:1006300008958FEF9FEF089590E080E00895FB010B
:1006400001900020E9F73197AF01461B570BDC0101
:10065000ED91FC910280F381E02D09940F931F939B
:10066000CF93DF93EC010E941F038C016AE271E0DB
:10067000CE010E941F03800F911FDF91CF911F9128
:100680000F9108950F931F93CF93DF93EC0188810F
:100690009981009759F02A813B812617370730F05E
:1006A00081E0DF91CF911F910F9108958B016F5FD2
:1006B0007F4F0E948009009759F0998388831B839C
:1006C0000A832C813D81232B59F7FC011082E8CF4E
:1006D00080E0E7CF1F920F920FB60F9211242F9355
:1006E0003F934F935F936F937F938F939F93AF93BA
:1006F000BF93EF93FF9389EB91E00E940B01FF9171
:10070000EF91BF91AF919F918F917F916F915F9189
:100710004F913F912F910F900FBE0F901F90189502
:100720001F920F920FB60F9211242F938F939F93C6
:10073000EF93FF93E091C901F091CA018081E091AC
:10074000CF01F091D00182FD1BC090818091D20138
:100750008F5F8F732091D301821741F0E091D20116
:10076000F0E0E754FE4F958F8093D201FF91EF9117
:100770009F918F912F910F900FBE0F901F90189502
:100780008081F4CF1F920F920FB60F9211242F93F6
:100790003F938F939F93AF93BF938091AB019091C1
:1007A000AC01A091AD01B091AE013091AA0123E05E
:1007B000230F2D3758F50196A11DB11D2093AA01D5
:1007C0008093AB019093AC01A093AD01B093AE01C7
:1007D0008091AF019091B001A091B101B091B201AF
:1007E0000196A11DB11D8093AF019093B001A0931C
:1007F000B101B093B201BF91AF919F918F913F91A1
:100800002F910F900FBE0F901F90189526E8230F81
:100810000296A11DB11DD2CF1F920F920FB60F925B
:1008200011242F933F934F935F936F937F938F93F5
:100830009F93AF93BF93EF93FF93E091B501F09136
:10084000B601309749F0A685B7858585968D91FFCD
:1008500014C09C918923A1F4FF91EF91BF91AF91B6
:100860009F918F917F916F915F914F913F912F91C8
:100870000F900FBE0F901F9018959C91892361F7E0
:10088000A389B4899C918589809589238C938689D5
:1008900097890197F1F7608D718DA685B78555858C
:1008A00038E020E0CB010197F1F7822F90E0959599
:1008B0008795282F4C91452309F02068315091F7F6
:1008C000868D81FD20958091B40190E001968F7313
:1008D00099273091B301381799F0A091B401B0E095
:1008E000A659BE4F2C938093B401828D938D0197AE
:1008F000F1F7A389B4898C919589892B8C93ACCF1E
:10090000868D8160868FF1CF1092BC011092BB0161
:1009100088EE93E0A0E0B0E08093BD019093BE012B
:10092000A093BF01B093C0012AE031E03093BA0137
:100930002093B90125EC30E03093C6012093C50126
:1009400024EC30E03093C8012093C70120EC30E064
:100950003093CA012093C90121EC30E03093CC01DF
:100960002093CB0122EC30E03093CE012093CD01D7
:1009700026EC30E03093D0012093CF011092D201C9
:100980001092D3011092D4011092D5011092590205
:100990001092580280935A0290935B02A0935C02DB
:1009A000B0935D028CE191E09093570280935602E0
:1009B00010926D0210926C0210926F0210926E02F1
:1009C00010927102109270021092730210927202D1
:1009D000609174026E7F6D7F6093740266956170A2
:1009E00081E0682784E00E949A0161E084E00E942F
:1009F000E601E2EBF0E0E491E0936602EEE9F0E07C
:100A0000E491F0E0EE0FFF1FE057FF4F85919491C6
:100A1000909368028093670260E083E00E94E601A1
:100A20008091740281FD04C061E083E00E949A011C
:100A300083E080936202E1EBF0E0E491E0936302F3
:100A4000EDE9F0E0E491F0E0EE0FFF1FEA57FF4F11
:100A50008591949190936502809364020895CF9359
:100A6000DF93CDB7DEB7A7970FB6F894DEBF0FBE02
:100A7000CDBF789484B5826084BD84B5816084BD27
:100A800085B5826085BD85B5816085BD80916E002C
:100A9000816080936E00109281008091810082605D
:100AA000809381008091810081608093810080919A
:100AB00080008160809380008091B1008460809389
:100AC000B1008091B00081608093B00080917A0085
:100AD000846080937A0080917A00826080937A00AB
:100AE00080917A00816080937A0080917A0080689A
:100AF00080937A001092C1001092710210927002DD
:100B000010926F0210926E0210926D0210926C029F
:100B10008DE991E09093730280937202909162024A
:100B2000963108F047C02DEB30E030936D022093F2
:100B30006C022BE931E030936F0220936E022CE2BD
:100B400031E030937102209370022091680084E0BC
:100B5000983048F031E09E3008F430E081E001C088
:100B6000880F3A95EAF7822B809368002DE630E0F3
:100B7000983050F02BE630E09E3030F02CE630E03C
:100B8000963110F030E020E030936A022093690241
:100B9000292F30E0983008F0FAC081E001C0880FBA
:100BA0009A95EAF780936B0280917202909173029A
:100BB0000197F1F78091700290917102892B49F1B0
:100BC000E091B501F091B60122E0E635F20709F1B6
:100BD000309739F0A389B4899C91858980958923C0
:100BE0008C93809174028E7F809374021092B40172
:100BF0001092B30186E592E09093B6018093B5011F
:100C0000E0916902F0916A02808190916B02892BD8
:100C1000808360ED77E080E090E00E943C0260E03D
:100C20008EE00E94E60161E08CE00E94E601E09126
:100C3000C901F091CA0182E08083E091C501F09181
:100C4000C6011082E091C701F091C8018FEC80834A
:100C50001092D101E091CD01F091CE0186E0808328
:100C6000E091CB01F091CC01808180618083E091A3
:100C7000CB01F091CC01808188608083E091CB0131
:100C8000F091CC01808180688083E091CB01F0916C
:100C9000CC0180818F7D80836DE271E086E592E0FA
:100CA0000E942E0368EB7BE080E090E00E943C0213
:100CB00064E371E086E592E00E942E0368EB7BE03E
:100CC00080E090E00E943C026EE371E089EB91E0ED
:100CD0000E942E0388248A9483E0982EA12CB12CA4
:100CE0009AE0C92ED12CE12CF12C20E0622E20E0DC
:100CF000722E1BA21AA21DA21CA21FA21EA270E08D
:100D000060E0CE0182960E9442032AA13BA181119C
:100D10004BC02115310519F0C9010E94F7081BA22B
:100D20001AA21FA21EA21DA21CA286E592E00E948A
:100D3000E302892B09F440C086E592E00E94E302B9
:100D4000892BD1F16DE070E080E090E00E943C02E0
:100D500086E592E00E94FB0289831A820EA11FA100
:100D60000F5F1F4FB801CE0182960E944203882375
:100D700019F32AA13BA18EA19FA1BE016F5F7F4FF6
:100D8000820F931F0E94460A1FA30EA3D5CF9E3049
:100D900040F42850310981E001C0880F2A95EAF714
:100DA00001CF2E503109F7CF1FA21EA26CE271E0D5
:100DB000C9010E94460AB9CF6DE471E089EB91E068
:100DC0000E941F034EA15FA16AA17BA189EB91E064
:100DD0000E948D006AE271E089EB91E00E941F039E
:100DE00080E480937C0080917A00806480937A0014
:100DF00080917A0086FDFCCF80917800A0917900E7
:100E0000BA2FA82F28E532E00E943A08A5019401E4
:100E10000E949F0719012A013093B8012093B7015E
:100E200057FE56C06DE289EB91E00E942D0122270A
:100E30003327A901221933094409550919A28E0142
:100E40000F5D1F4FCA01B901A70196010E94F50766
:100E5000605DF80162938F0121153105410551054F
:100E600089F70115110529F0B80189EB91E00E947D
:100E70001F036AE271E089EB91E00E941F038091F9
:100E8000B7019091B8018C329140B4F161E08CE0EF
:100E90000E949A0165E571E089EB91E00E942E03C2
:100EA00068EC70E080E090E00E943C028AA19BA187
:100EB000009711F00E94F7086114710409F419CF2A
:100EC0000E94F700882309F414CF0E94000011CF7C
:100ED00019A28E010F5D1F4FCA01B901A70196012A
:100EE0000E94F507605DF80162938F0121153105BD
:100EF0004105510589F7B5CF60E08CE00E949A0169
:100F00006FE571E0C9CF8CE191E090935702809337
:100F100056028091B5019091B6018655924071F4C8
:100F2000E0916902F0916A02908180916B02809554
:100F3000892380831092B6011092B5010895052E81
:100F400097FB1EF400940E94B60757FD07D00E943D
:100F5000F50707FC03D04EF40C94B6075095409566
:100F6000309521953F4F4F4F5F4F08959095809555
:100F7000709561957F4F8F4F9F4F08952F923F92AD
:100F80004F925F926F927F928F929F92AF92BF9299
:100F9000CF92DF92EF92FF920F931F93CF93DF9345
:100FA000CDB7DEB7CA1BDB0B0FB6F894DEBF0FBEA2
:100FB000CDBF09942A88398848885F846E847D84EF
:100FC0008C849B84AA84B984C884DF80EE80FD80F1
:100FD0000C811B81AA81B981CE0FD11D0FB6F89467
:100FE000DEBF0FBECDBFED010895A1E21A2EAA1BF0
:100FF000BB1BFD010DC0AA1FBB1FEE1FFF1FA217C9
:10100000B307E407F50720F0A21BB30BE40BF50BC5
:10101000661F771F881F991F1A9469F7609570954E
:10102000809590959B01AC01BD01CF010895A29FD1
:10103000B001B39FC001A39F700D811D1124911DAC
:10104000B29F700D811D1124911D089597FB072EED
:1010500016F4009407D077FD09D00E94410807FCE0
:1010600005D03EF4909581959F4F089570956195B8
:101070007F4F08950E941708B7FF0895821B930BB6
:101080000895AA1BBB1B51E107C0AA1FBB1FA617CF
:10109000B70710F0A61BB70B881F991F5A95A9F721
:1010A00080959095BC01CD010895EE0FFF1F05902E
:1010B000F491E02D09940F931F93CF93DF93823027
:1010C000910510F482E090E0E0917702F0917802CF
:1010D00030E020E0B0E0A0E0309799F42115310530
:1010E00009F44AC0281B390B24303105D8F58A8110
:1010F0009B816115710589F1FB0193838283FE0158
:1011000011C0408151810281138148175907E0F0D5
:101110004817590799F4109761F012960C9312979B
:1011200013961C933296CF01DF91CF911F910F91AF
:1011300008950093770210937802F4CF21153105BA
:1011400051F04217530738F0A901DB019A01BD01A4
:10115000DF01F801C1CFEF01F9CF909378028093BE
:101160007702CDCFFE01E20FF31F819391932250BE
:10117000310939832883D7CF2091750230917602C7
:10118000232B41F420910201309103013093760228
:101190002093750220910001309101012115310544
:1011A00041F42DB73EB74091040150910501241B35
:1011B000350BE0917502F0917602E217F307A0F487
:1011C0002E1B3F0B2817390778F0AC014E5F5F4F9D
:1011D0002417350748F04E0F5F1F50937602409357
:1011E0007502819391939FCFF0E0E0E09CCFCF9385
:1011F000DF930097E9F0FC01329713821282A091ED
:101200007702B0917802ED0130E020E01097A1F470
:1012100020813181820F931F2091750230917602D7
:101220002817390709F061C0F0937602E093750240
:10123000DF91CF910895EA01CE17DF07E8F54A81E3
:101240005B819E0141155105B1F7E901FB83EA83FA
:1012500049915991C40FD51FEC17FD0761F48081A6
:1012600091810296840F951FE90199838883828179
:1012700093819B838A83F0E0E0E012968D919C91AC
:1012800013970097B9F52D913C911197CD010296D6
:10129000820F931F2091750230917602281739072B
:1012A00039F6309751F51092780210927702B09388
:1012B0007602A0937502BCCFD383C2834081518153
:1012C000840F951FC817D90761F44E5F5F4F88815F
:1012D0009981480F591F518340838A819B81938351
:1012E00082832115310509F0B0CFF0937802E093A5
:1012F00077029ECFFD01DC01C0CF13821282D7CFCF
:10130000B0E0A0E0E6E8F9E00C94C0078C0100979B
:1013100051F4CB010E945B088C01C801CDB7DEB748
:10132000E0E10C94DC07FC01E60FF71F9C01225062
:101330003109E217F30708F49DC0D901CD91DC9182
:101340001197C617D70798F0C530D10530F3CE01F5
:1013500004978617970708F3C61BD70B2297C193EC
:10136000D1936D937C93CF010E94F708D6CF5B0198
:10137000AC1ABD0A4C018C0E9D1EA0917702B09153
:101380007802512C412CF12CE12C109731F58091F1
:101390007502909176028815990509F05CC0461691
:1013A000570608F058C08091000190910101009704
:1013B00041F48DB79EB74091040150910501841B03
:1013C000950BE817F90708F055C0F0937602E09303
:1013D0007502F90171836083A0CF8D919C91119763
:1013E00012966C90129713967C901397A815B905D6
:1013F00059F56C0142E0C40ED11CCA14DB0420F183
:10140000AC014A195B09DA011296159780F06282E5
:10141000738251834083D9016D937C93E114F1046D
:1014200071F0D7011396FC93EE93129776CF229624
:101430008C0F9D1FF90191838083F301EFCFF0930F
:101440007802E093770269CF4816590608F42C0118
:101450007D01D3019ACFCB010E945B087C010097EC
:1014600049F0AE01B8010E943D0AC8010E94F70888
:10147000870153CF10E000E050CFFB01DC0102C038
:1014800001900D9241505040D8F70895FB01DC01C6
:1014900001900D920020E1F7089510E0C2E6D0E03F
:1014A00004C0FE010E9455082196C336D107C9F732
:0414B000F894FFCFDE
:1014B400000079028000000000002D018D00BA00B8
:1014C4007A01EB00C900DD000000000087028D00F6
:1014D4001C038602E302FB026E020D0A0041545310
:1014E400303D310041542B444445543D310053694F
:1014F4007374656D206261736C6164690067656C07
:10150400656E3A20004D4F544F52204F4E20004DEF
:0A1514004F544F52204F464620006E
:00000001FF
